:1000000015C1000044C1000042C1000040C1000011
:100010003EC100003CC100003AC1000038C10000F0
:1000200036C1000034C1000032C1000030C1000000
:100030002EC100002CC100002AC1000028C1000010
:1000400026C1000024C1000022C1000020C1000020
:100050001EC100001CC100001AC100006CC70000D6
:1000600016C100000C94E70A0C941D0B10C100008F
:100070000EC100000CC100000AC1000008C1000050
:1000800006C1000004C1000002C1000000C1000060
:10009000FEC00000FCC00000FAC00000F8C0000074
:1000A000F6C00000F4C00000F2C00000F0C0000084
:1000B000EEC00000ECC00000EAC00000E8C0000094
:1000C000E6C00000E4C00000E2C00000E0C00000A4
:1000D000DEC00000DCC00000DAC00000D8C00000B4
:1000E000D6C00000A708AA0899089D08A308E1083F
:1000F000AE08B208B808BC08C008C608CA08CE08CE
:10010000E108D408D808DC0800000A0B02090C0D2D
:100110000E080703040100000000000000000000BA
:1001200000000000000000000000000000000000CF
:10013000000000001211100000000000000000008C
:1001400000000000000000000000000000000102AC
:1001500010202008081020401020408002010201D9
:100160000804020101020408102040808040201091
:1001700008040201800402018040201008040201EA
:100180000804020101020408102040800102040852
:10019000102040800505050507050808080802022B
:1001A00002020A0A08080404040401010101010111
:1001B00001010303030303030303040707070C0CF4
:1001C0000C0C0C0C0C0C02020202060606060606BB
:1001D00006060B0B0B0B0B0B0B0B00002000230078
:1001E000260029002C002F0032000001000003012E
:1001F0000601090100002200250028002B002E0026
:100200003100340002010000050108010B0100006B
:100210002100240027002A002D00300033000101B6
:100220000000040107010A0163024F0B11241FBEE5
:10023000CFEFD1E2DEBFCDBF00E00CBF12E0A0E007
:10024000B2E0E0E1F9E100E00BBF02C007900D92DF
:10025000AE36B107D9F723E0AEE6B2E001C01D9299
:10026000AA32B207E1F712E0CCE2D2E000E006C029
:1002700022970109FE010BBF0E94820CC832D107F0
:1002800080E00807A9F70E944D0C0C94860CB8CEAC
:1002900061E08AE097D761E08BE094D761E08CE081
:1002A00091D726E040E855E260E070E08DE892E00A
:1002B0000E94870A0DD18EE692E0B1D260E78EE609
:1002C00092E0EAC20F931F93CF93DF938EE692E002
:1002D0000CD6811103C080E090E028C08EE692E049
:1002E00021D68823C1F368E072E08DE892E00E9495
:1002F000D30BCFE6D2E00CE712E06991F8016193ED
:100300008F0140E150E08DE892E00E94460CF2E05F
:10031000C337DF0791F76FE572E08DE892E00E9446
:10032000D30B8EE692E0A0D581E090E0DF91CF91F3
:100330001F910F9108950F931F93CF93DF938B011C
:10034000EA01892B11F060E001C061E08CE073D715
:10035000012B11F060E001C061E08AE06CD7CD2B89
:1003600011F060E001C061E08BE0DF91CF911F915F
:100370000F9161C740E050E061E070E080E090E004
:10038000DADF68EE73E080E090E042D640E050E0D3
:1003900060E070E080E090E0CEDF68EE73E080E047
:1003A00090E036C6CF93DF9365E172E08DE892E08E
:1003B0000E94D30BCAE0D0E040E050E060E070E083
:1003C00081E090E0B8DF64E670E080E090E020D665
:1003D00040E050E060E070E080E090E0ACDF64E698
:1003E00070E080E090E014D6219731F7DF91CF9153
:1003F000089541E050E060E070E080E090E09BDF35
:1004000068EC70E080E090E003D640E050E060E00F
:1004100070E080E090E08FDF68EC70E080E090E0DA
:10042000F7D550DF9093820280938102892B09F3E4
:1004300080917C0290910402891322C020917D0258
:100440009091050229131CC020917E029091060212
:10045000291316C020917F0290910702291310C022
:1004600060E272E08DE892E00E94D30B83DF80911E
:100470007F0280938002109282021092810208957E
:100480009091000289131EC090917D02809101021B
:10049000981318C090917E0280910202981312C0A6
:1004A00090917F028091030298130CC066E372E082
:1004B0008DE892E00E94D30B5DDF80917F028093F4
:1004C000800208956FCF43E064E08EE692E096C02C
:1004D000CF93CFB7F89480918302811123C0E9ECC8
:1004E000F1E08491E3E8F1E09491E82FF0E0EE0F81
:1004F000FF1FE25FFD4FA591B4918C91892319F400
:1005000061E085E398D661E085E35CD68CB58061D7
:100510008CBD8CB580648CBD61E084E353D661E012
:1005200083E350D6809183028F5F80938302CFBF95
:10053000CF9108958EBD00000DB407FEFDCF8EB59E
:1005400008957F928F929F92AF92BF92CF92DF9247
:10055000EF92FF920F931F93CF93DF936C01162FAF
:10056000942EE9011E77106860E0FC01848563D653
:100570009A94812FDFDF7C2EEC2EFD2EAA24A394EB
:10058000B12C8E2D8719891518F5811119C00023FA
:10059000B9F0802F812C883048F49501082E01C0D5
:1005A000220F0A94EAF7822A8F5FF5CF812FC2DFEC
:1005B000982D9095288192238821982B988304C0A8
:1005C000812FB8DFF7018083FFEFEF1AFF0AD9CF41
:1005D000C90DD11D80E0AEDF888361E0F60184851E
:1005E000DF91CF911F910F91FF90EF90DF90CF900F
:1005F000BF90AF909F908F907F901DC6FC01648745
:10060000458708958CB58F7D8CBD8CB5837F8CBD5F
:100610000895EF92FF921F93CF93DF931F92CDB770
:10062000DEB77C01162F60E0FC018485498303D688
:10063000812F8E777FDF4981842F7CDF61E0F70196
:1006400084850F90DF91CF911F91FF90EF90F3C5BC
:10065000CF92DF92EF92FF920F931F93CF93DF938E
:100660001F921F92CDB7DEB78C01E62EF42E60E00C
:10067000FC01848529833A83DED58E2D8E775ADF5F
:100680002981E22EC22E3A81D32E8C2D8E198F1500
:1006900028F4F60181916F014DDFF7CF61E0F80199
:1006A00084850F900F90DF91CF911F910F91FF9054
:1006B000EF90DF90CF90BFC51F93CF93DF93EC01F6
:1006C000162F60E08C85B7D5812F8E77806832DF5A
:1006D00080E030DF182F61E08C85ADD5812FDF9170
:1006E000CF911F9108950F9341112BDF0F91089522
:1006F000EF92FF921F93CF93DF931F92CDB7DEB798
:100700007C01162F4983D8DF4981482B612FC7010F
:100710000F90DF91CF911F91FF90EF907ACFEF92E2
:10072000FF921F93CF93DF931F92CDB7DEB77C016B
:10073000162F4983C1DF498140954823612FC701A6
:100740000F90DF91CF911F91FF90EF9062CFDF92DA
:10075000EF92FF920F931F93CF93DF93EC018B01E6
:10076000D42E790140E062E054DF44E06AE0CE013B
:1007700050DF40E864E1CE01BBDF98014D2D62E11E
:10078000CE0166DF43E062E0CE0143DF08E813E11B
:100790006AE0CE0191DF82FD05C001501109C1F769
:1007A00084E00FC040E062E0CE0133DF64E4CE01BC
:1007B00083DFF701808362E4CE017EDFF70181836E
:1007C00081E0DF91CF911F910F91FF90EF90DF902B
:1007D0000895CF93DF93EC014FE062E01ADF62E30C
:1007E00070E080E090E014D462E0CE0165DF84FD2B
:1007F000FBCFDF91CF910895CF93DF93EC0168E2B7
:100800005BDF982F9370933039F0482F436068E294
:10081000CE01DF91CF91FDCEDF91CF910895CF939F
:10082000DF93EC0161E08C85CDD461E08C8503D54C
:1008300061E08D85C7D4CE01E5DE8D8531D5892B6C
:1008400049F461E08D85F7D462E370E080E090E0E8
:10085000DFD302C0CE01BDDF40E864E5CE01D9DEC2
:1008600049EA66E5CE01D5DE43E068E5CE01D1DE9A
:1008700048EE6AE5CE01CDDE40E46AE2CE01C9DE93
:100880004DE362E2CE01C5DECE01DF91CF91B4CF60
:100890006CE412DF807708951F93CF93DF93EC0110
:1008A000162FF6DF811761F040E76CE4CE0137DFE9
:1008B000412F40776CE4CE01DF91CF911F9118CF8B
:1008C000DF91CF911F9108952F923F925F926F9287
:1008D0007F928F929F92AF92BF92CF92DF92EF92D0
:1008E000FF920F931F93CF93DF9300D01F92CDB74A
:1008F000DEB73C01962E542E302E082DA114B104E3
:1009000019F0F501408101C040E0242EF0E10F9F75
:10091000200C112440E062E0C3012B833C8379DE8C
:100920004FE768E0C30175DE40E864E1C301E0DE43
:100930002B813C81432D62E1C3018ADE422D6AE1B5
:10094000C30167DE492D62E0C30163DE8CE09812CB
:1009500004C040E86AE1C301CBDE90ED292E97E0A8
:10096000392E68E0C301A8DE982F952139F480FD67
:100970005DC0E1E02E1A3108A1F758C06CE0C30158
:100980009BDE982E837109F053C0E114F104D9F075
:10099000C114D104C1F064E1C3018EDE482FF60119
:1009A0008081841708F446C04083970162E1C30147
:1009B0009ADE68E1C30180DE182F1770A114B1041C
:1009C00011F0F501108393FC37C0E114F104B1F18B
:1009D000C114D10499F1898D882381F1F6014081F8
:1009E000413019F4143019F41FC0423010F488E07B
:1009F00026C01111FCCF42509E012F5F3F4FB7011F
:100A0000C301A5DE8130D9F4F6018081E80EF11C26
:100A1000F7013297908189819813E9CF31969081BF
:100A20008A819813E4CF0AC089E009C084E007C036
:100A300082E005C085E003C083E001C081E00F9043
:100A40000F900F900F90DF91CF911F910F91FF901A
:100A5000EF90DF90CF90BF90AF909F908F907F905E
:100A60006F905F903F902F9008958F92AF92BF92BA
:100A7000CF92DF92EF92FF920F931F93AF928C2C45
:100A8000570168017901042F9B0140E36CE01CDFF2
:100A90000F901F910F91FF90EF90DF90CF90BF903C
:100AA000AF908F9008954F925F926F927F928F9246
:100AB0009F92AF92CF92EF92FF920F931F93CF939B
:100AC000DF931F921F92CDB7DEB73C016A832A01E4
:100AD00049014115510521F1F9018081823000F170
:100AE00040E86CE1C3011BDE87E08983A12CC12CA7
:100AF000CE0101967C018401920141E0BE016E5F4E
:100B00007F4FC301B2DF813061F4F4018081823014
:100B100011F082E006C089818111FBCF81E001C024
:100B200085E00F900F90DF91CF911F910F91FF9073
:100B3000EF90CF90AF909F908F907F906F905F904D
:100B40004F9008959A01AB0166E2ADCF2F923F928C
:100B50004F925F926F927F928F929F92AF92BF92CD
:100B6000CF92DF92EF92FF920F931F93CF93DF9379
:100B7000CDB7DEB72D970FB6F894DEBF0FBECDBF51
:100B80003C012B01342E20E5241708F406C140E86F
:100B90006CE1C5DDBB24B39432E0B31691F043E0C1
:100BA000B416E1F081E0B812FCC083E989833320F8
:100BB000D1F041E0D2018C91853008F440E0D12C95
:100BC00017C085E98983332081F041E0F2018081FB
:100BD000883008F440E073E0D72E0AC087E98983A3
:100BE00066E0D62E04C0D12C02C053E0D52E40E0E2
:100BF000532DF8EFDF9E500D112457FD50E0442394
:100C000021F088E88B8373E001C072E091E0852FCA
:100C1000877009F490E0852F859585958595890FD6
:100C200021F4442311F1585F20C0442311F063E004
:100C300001C064E0861708F4682F80E090E092011C
:100C40002D0D311DE72FE80FA1E0B0E0AC0FBD1F67
:100C5000AE0FB11DFD01D901A80FB91F1196AC91BE
:100C6000A0830196861770F3DCCF43E0242E503228
:100C7000FCF0B0E7BA838C819B8189279D8189270D
:100C80009E8189278F839E01285F3F4F47E0BE01E9
:100C90006F5F7F4FC3015D875ADD5D85813009F04D
:100CA000CAC01B862A86FE0137964F0179E01EC016
:100CB000952F97709B87252F25952595259582E063
:100CC000820F392FF0E18F9F300D11243A8371E0AC
:100CD000911101C070E0780F88248394912C8C0EC0
:100CE0009D1E880E911C87E0821B8A87CB844C2D29
:100CF0004295407F4C0D6AE1C3015D877C8789DCAA
:100D0000A12C9E01255F3F4F79018E01065F1F4F89
:100D100094017C85472FBE016F5F7F4FC301A5DE25
:100D20005D85833099F56CE1C301C6DC5D8585FD89
:100D300036C0482F4F7109F440E2842F90E0252FF0
:100D4000332727FD3095281739075CF5542F019775
:100D500087709927242F2595259525952F5F31E0BC
:100D6000811101C030E0230FE1E0F0E0EC0FFD1F46
:100D7000E20FF11DA1E0B0E002C0AA0FBB1F8A95EF
:100D8000E2F7CD019081982B908371CF813009F0EB
:100D900052C0503244F450E26CCF87E04CC083E044
:100DA0004AC086E048C08B81883819F052E044E0A0
:100DB00002C053E043E080E090E092012D0D311D30
:100DC000F901E80FF91F652F680FA1E0B0E0AC0F43
:100DD000BD1FA60FB11D6C9161830196841780F32E
:100DE0008A85833029F58B85811122C09E012D5F74
:100DF0003F4F41E0B401C301AADC8130E1F49B81A3
:100E0000F4018181981316C09C818281981312C0CD
:100E1000808182FF02C0B394BFCED2011B968C9317
:100E20001B978B2D880F8B0D8F5F8C9381E003C0F8
:100E300082E001C088E02D960FB6F894DEBF0FBEA9
:100E4000CDBFDF91CF911F910F91FF90EF90DF9079
:100E5000CF90BF90AF909F908F907F906F905F905A
:100E60004F903F902F9008958F929F92AF92CF9284
:100E7000EF92FF920F931F93CF93DF9300D01F92B7
:100E8000CDB7DEB74C0180E589831A829E012D5FC4
:100E90003F4F42E0BE016F5F7F4FC40158DC81309D
:100EA000A9F4A12CC12CE12CF12C00E010E020E0F1
:100EB00030E044E0BE016F5F7F4FC401D6DD843077
:100EC00021F0813019F482E001C081E00F900F9091
:100ED0000F900F90DF91CF911F910F91FF90EF90A6
:100EE000CF90AF909F908F900895CF93DF9300D0D5
:100EF000CDB7DEB722E02B83AE014D5F5F4FBE0161
:100F00006F5F7F4F1FDE813031F091E0833009F059
:100F100090E0892F01C081E00F900F900F90DF913A
:100F2000CF91089540E0BC0111DE91E0813009F0DD
:100F300090E0892F08951F920F920FB60F921124FF
:100F40002F933F938F939F93AF93BF93809185028D
:100F500090918602A0918702B0918802309184021C
:100F600023E0230F2D3720F40196A11DB11D05C0EC
:100F700026E8230F0296A11DB11D209384028093C1
:100F8000850290938602A0938702B0938802809195
:100F9000890290918A02A0918B02B0918C020196F5
:100FA000A11DB11D8093890290938A02A0938B02A8
:100FB000B0938C02BF91AF919F918F913F912F91F0
:100FC0000F900FBE0F901F9018953FB7F894809127
:100FD000890290918A02A0918B02B0918C0226B571
:100FE000A89B05C02F3F19F00196A11DB11D3FBF61
:100FF0006627782F892F9A2F620F711D811D911DF1
:1010000042E0660F771F881F991F4A95D1F7089510
:10101000CF92DF92EF92FF92CF93DF936B017C012F
:10102000D4DFEB01C114D104E104F10479F041D41F
:10103000CCDF6C1B7D0B683E7340A0F381E0C81AC7
:10104000D108E108F108C851DC4FECCFDF91CF9116
:10105000FF90EF90DF90CF900895789484B58260F0
:1010600084BD84B5816084BD85B5826085BD85B54C
:10107000816085BDEEE6F0E0808181608083E1E8FB
:10108000F0E0108280818260808380818160808333
:10109000E0E8F0E0808181608083E1EBF0E0808136
:1010A00084608083E0EBF0E0808181608083E1E90F
:1010B000F0E0808182608083808181608083E0E9CC
:1010C000F0E0808181608083E1EAF0E080818260ED
:1010D0008083808181608083E0EAF0E080818160AC
:1010E0008083E1E2F1E080818260808380818160A1
:1010F0008083E0E2F1E0808181608083EAE7F0E0D4
:10110000808184608083808182608083808181602F
:1011100080838081806880831092C100089590E070
:10112000FC013197E231F10508F04BC0EE58FF4F5A
:10113000E3C3809180008F7703C0809180008F7D12
:1011400080938000089580918000877FF9CF84B5D7
:101150008F7702C084B58F7D84BD08958091B000E3
:101160008F7703C08091B0008F7D8093B000089589
:10117000809190008F7707C0809190008F7D03C091
:1011800080919000877F8093900008958091A000C7
:101190008F7707C08091A0008F7D03C08091A00051
:1011A000877F8093A0000895809120018F7707C0EA
:1011B000809120018F7D03C080912001877F8093E3
:1011C00020010895CF93DF9390E0FC01E25BFE4F96
:1011D0002491FC01EC56FE4F8491882349F190E064
:1011E000880F991FFC01E25FFD4FA591B4918C50CF
:1011F0009E4FFC01C591D4919FB7611108C0F8942E
:101200008C91209582238C93888182230AC062303E
:1012100051F4F8948C91322F309583238C938881EC
:10122000822B888304C0F8948C91822B8C939FBF6F
:10123000DF91CF9108950F931F93CF93DF931F9268
:10124000CDB7DEB7282F30E0F901E85FFE4F84917B
:10125000F901E25BFE4F1491F901EC56FE4F049147
:101260000023C1F0882319F0698359DF6981E02FD9
:10127000F0E0EE0FFF1FEC50FE4FA591B4919FB729
:10128000F8948C91611103C01095812301C0812BCA
:101290008C939FBF0F90DF91CF911F910F91089575
:1012A000CF93DF93282F30E0F901E85FFE4F849160
:1012B000F901E25BFE4FD491F901EC56FE4FC49167
:1012C000CC2389F081112BDFEC2FF0E0EE0FFF1F14
:1012D000E652FE4FA591B4912C912D2381E090E030
:1012E00021F480E002C080E090E0DF91CF9108958A
:1012F000FC01818D228D90E0805C9F4F821B9109C3
:101300008F7399270895FC01918D828D981731F084
:10131000828DE80FF11D858D90E008958FEF9FEF8E
:101320000895FC01918D828D981761F0828DDF0107
:10133000A80FB11D5D968C91928D9F5F9F73928FC8
:1013400090E008958FEF9FEF089586E49BE0892B4E
:1013500039F080E090E0892B19F098D1811125C0F7
:1013600080E090E0892B41F080E090E0892B21F033
:101370000E94000081111CC080E090E0892B41F0A8
:1013800080E090E0892B21F00E940000811113C0C1
:1013900080E090E0892BA1F080E090E0892B81F043
:1013A0000E94000081110AC008950E940000D8CF59
:1013B0000E940000E1CF0E940000EACF0C940000E0
:1013C0000895FC01848DDF01A80FB11DA35ABF4F02
:1013D0002C91848D90E001968F739927848FA68934
:1013E000B7892C93A089B1898C9180648C93938D5B
:1013F000848D981306C00288F389E02D80818F7D4B
:1014000080830895CF93DF93EC01888D8823C1F00A
:10141000EA89FB89808185FD05C0A889B9898C91FD
:1014200086FD0EC00FB607FCF5CF808185FFF2CF99
:10143000A889B9898C9185FFEDCFCE01C2DFE8CFB5
:10144000DF91CF910895CF92DF92FF920F931F9378
:10145000CF93DF931F92CDB7DEB76C0181E0D60149
:1014600058968C9358975B969C915B975C968C9161
:101470005C97981307C05096ED91FC91519780812D
:1014800085FD2DC0F601038D10E00F5F1F4F0F7318
:101490001127F02EF601848DF81210C00FB607FC4C
:1014A000F9CFD6015096ED91FC915197808185FF3F
:1014B000F1CFC601698385DF6981ECCF838DE80FA9
:1014C000F11DE35AFF4F6083D6015B960C935B9747
:1014D0005296ED91FC915397808180620CC0D601A9
:1014E0005696ED91FC91579760835096ED91FC9143
:1014F000519780818064808381E090E00F90DF913C
:10150000CF911F910F91FF90DF90CF900895BF92E0
:10151000CF92DF92EF92FF92CF93DF93EC016A01BB
:101520007B01B22EE889F98982E08083411581EE42
:1015300058076105710599F060E079E08DE390E06E
:10154000A7019601B7D1215031094109510956959A
:10155000479537952795211580E1380790F0E88960
:10156000F989108260E874E88EE190E0A7019601A5
:10157000A1D1215031094109510956954795379517
:101580002795EC85FD853083EE85FF852083188EB9
:10159000EC89FD89B082EA89FB8980818061808342
:1015A000EA89FB89808188608083EA89FB89808160
:1015B00080688083EA89FB8980818F7D8083DF91C9
:1015C000CF91FF90EF90DF90CF90BF9008951F9242
:1015D0000F920FB60F9211240BB60F922F938F9389
:1015E0009F93EF93FF93E0919D02F0919E02808183
:1015F000E091A302F091A40282FD12C0908180913B
:10160000A6028F5F8F732091A702821751F0E0919D
:10161000A602F0E0E357FD4F958F8093A60201C02C
:101620008081FF91EF919F918F912F910F900BBE31
:101630000F900FBE0F901F9018951F920F920FB62C
:101640000F9211240BB60F922F933F934F935F93FA
:101650006F937F938F939F93AF93BF93EF93FF937A
:101660008DE892E0AEDEFF91EF91BF91AF919F9137
:101670008F917F916F915F914F913F912F910F903B
:101680000BBE0F900FBE0F901F9018958DE892E043
:101690002FDE21E0892B09F420E0822F089510929B
:1016A000900210928F0288EE93E0A0E0B0E0809369
:1016B000910290939202A0939302B093940281E5D9
:1016C00092E090938E0280938D0285EC90E090934F
:1016D0009A028093990284EC90E090939C0280930C
:1016E0009B0280EC90E090939E0280939D0281EC9F
:1016F00090E09093A00280939F0282EC90E0909300
:10170000A2028093A10286EC90E09093A4028093C1
:10171000A3021092A6021092A7021092A8021092A1
:10172000A9020895CF92DF92EF92FF920F931F9339
:10173000CF93DF937C016A01EB0100E010E00C1510
:101740001D0571F06991D701ED91FC910190F08137
:10175000E02DC7011995892B19F00F5F1F4FEFCFAF
:10176000C801DF91CF911F910F91FF90EF90DF9013
:10177000CF9008956115710581F0DB010D90002077
:10178000E9F7AD0141505109461B570BDC01ED91C2
:10179000FC910280F381E02D199480E090E008959F
:1017A0006DE572E0E7CF0F931F93CF93DF93EC01CA
:1017B000E1DF8C01CE01F4DF800F911FDF91CF912B
:1017C0001F910F9108958F929F92AF92BF92CF92E7
:1017D000DF92EF92FF920F931F93CF93DF93CDB7DA
:1017E000DEB7A1970FB6F894DEBF0FBECDBF7C0168
:1017F000C42EE52FCB01D22E19A221E02D1510F019
:101800002AE0D22E8E010F5D1F4F8D2C912CA12C22
:10181000B12C6C2D7E2FA50194014CD08C2DD29E25
:1018200080191124015011098A3014F4805D01C01F
:10183000895CF8018083211531054105510521F0AE
:10184000C22EE32FCA01E5CFB801C70193DFA196ED
:101850000FB6F894DEBF0FBECDBFDF91CF911F91C1
:101860000F91FF90EF90DF90CF90BF90AF909F903F
:101870008F9008952115310541F4DC01ED91FC9123
:101880000190F081E02D642F19949DCF9A01462F8D
:1018900050E060E070E0EECF0895DFDBFDDF0E94F6
:1018A0004801C5EAD9E00E94F9012097E1F34DDD36
:1018B000FACF0895A1E21A2EAA1BBB1BFD010DC091
:1018C000AA1FBB1FEE1FFF1FA217B307E407F507F0
:1018D00020F0A21BB30BE40BF50B661F771F881FCC
:1018E000991F1A9469F760957095809590959B0162
:1018F000AC01BD01CF010895EE0FFF1F0590F491DB
:10190000E02D19940790F691E02D1994F894FFCFEB
:10191000A31B630202631BA35363616E6E656420A5
:101920005549443A00476F20546F2048656C6C005D
:10193000596F752063616E20656E746572204D72FB
:1019400020426C756500596F752063616E20656E6D
:10195000746572204D72205768697465000000003C
:1019600000230A920B780991098309020A0D0A00E3
:0E1970006E616E00696E66006F7666002E0076
:00000001FF
