:1000000015C1000044C1000042C1000040C1000011
:100010003EC100003CC100003AC1000038C10000F0
:1000200036C1000034C1000032C1000030C1000000
:100030002EC100002CC100002AC1000028C1000010
:1000400026C1000024C1000022C1000020C1000020
:100050001EC100001CC100001AC100006CC70000D6
:1000600016C100000C94E70A0C941D0B10C100008F
:100070000EC100000CC100000AC1000008C1000050
:1000800006C1000004C1000002C1000000C1000060
:10009000FEC00000FCC00000FAC00000F8C0000074
:1000A000F6C00000F4C00000F2C00000F0C0000084
:1000B000EEC00000ECC00000EAC00000E8C0000094
:1000C000E6C00000E4C00000E2C00000E0C00000A4
:1000D000DEC00000DCC00000DAC00000D8C00000B4
:1000E000D6C00000A708AA0899089D08A308E1083F
:1000F000AE08B208B808BC08C008C608CA08CE08CE
:10010000E108D408D808DC0800000A0B02090C0D2D
:100110000E080703040100000000000000000000BA
:1001200000000000000000000000000000000000CF
:10013000000000001211100000000000000000008C
:1001400000000000000000000000000000000102AC
:1001500010202008081020401020408002010201D9
:100160000804020101020408102040808040201091
:1001700008040201800402018040201008040201EA
:100180000804020101020408102040800102040852
:10019000102040800505050507050808080802022B
:1001A00002020A0A08080404040401010101010111
:1001B00001010303030303030303040707070C0CF4
:1001C0000C0C0C0C0C0C02020202060606060606BB
:1001D00006060B0B0B0B0B0B0B0B00002000230078
:1001E000260029002C002F0032000001000003012E
:1001F0000601090100002200250028002B002E0026
:100200003100340002010000050108010B0100006B
:100210002100240027002A002D00300033000101B6
:100220000000040107010A0163024F0B11241FBEE5
:10023000CFEFD1E2DEBFCDBF00E00CBF12E0A0E007
:10024000B2E0E0E1F9E100E00BBF02C007900D92DF
:10025000AE36B107D9F723E0AEE6B2E001C01D9299
:10026000AA32B207E1F712E0CCE2D2E000E006C029
:1002700022970109FE010BBF0E94820CC832D107F0
:1002800080E00807A9F70E944D0C0C94860CB8CEAC
:1002900061E08AE097D761E08BE094D761E08CE081
:1002A00091D726E040E855E260E070E08DE892E00A
:1002B0000E94870A0DD18EE692E0B1D260E78EE609
:1002C00092E0EAC20F931F93CF93DF938EE692E002
:1002D0000CD6811103C080E090E028C08EE692E049
:1002E00021D68823C1F368E072E08DE892E00E9495
:1002F000D30BCFE6D2E00CE712E06991F8016193ED
:100300008F0140E150E08DE892E00E94460CF2E05F
:10031000C337DF0791F76FE572E08DE892E00E9446
:10032000D30B8EE692E0A0D581E090E0DF91CF91F3
:100330001F910F9108950F931F93CF93DF938B011C
:10034000EA01892B11F060E001C061E08CE073D715
:10035000012B11F060E001C061E08AE06CD7CD2B89
:1003600011F060E001C061E08BE0DF91CF911F915F
:100370000F9161C740E050E061E070E080E090E004
:10038000DADF68EE73E080E090E042D640E050E0D3
:1003900060E070E080E090E0CEDF68EE73E080E047
:1003A00090E036C6CF93DF9365E172E08DE892E08E
:1003B0000E94D30BCAE0D0E040E050E060E070E083
:1003C00081E090E0B8DF64E670E080E090E020D665
:1003D00040E050E060E070E080E090E0ACDF64E698
:1003E00070E080E090E014D6219731F7DF91CF9153
:1003F000089541E050E060E070E080E090E09BDF35
:1004000068EC70E080E090E003D640E050E060E00F
:1004100070E080E090E08FDF68EC70E080E090E0DA
:10042000F7D550DF9093820280938102892B09F3E4
:1004300080917C0290910402891322C020917D0258
:100440009091050229131CC020917E029091060212
:10045000291316C020917F0290910702291310C022
:1004600060E272E08DE892E00E94D30B83DF80911E
:100470007F0280938002109282021092810208957E
:100480009091000289131EC090917D02809101021B
:10049000981318C090917E0280910202981312C0A6
:1004A00090917F028091030298130CC066E372E082
:1004B0008DE892E00E94D30B5DDF80917F028093F4
:1004C000800208956FCF43E064E08EE692E096C02C
:1004D000CF93CFB7F89480918302811123C0E9ECC8
:1004E000F1E08491E3E8F1E09491E82FF0E0EE0F81
:1004F000FF1FE25FFD4FA591B4918C91892319F400
:1005000061E085E398D661E085E35CD68CB58061D7
:100510008CBD8CB580648CBD61E084E353D661E012
:1005200083E350D6809183028F5F80938302CFBF95
:10053000CF9108958EBD00000DB407FEFDCF8EB59E
:1005400008957F928F929F92AF92BF92CF92DF9247
:10055000EF92FF920F931F93CF93DF936C01162FAF
:10056000942EE9011E77106860E0FC01848563D653
:100570009A94812FDFDF7C2EEC2EFD2EAA24A394EB
:10058000B12C8E2D8719891518F5811119C00023FA
:10059000B9F0802F812C883048F49501082E01C0D5
:1005A000220F0A94EAF7822A8F5FF5CF812FC2DFEC
:1005B000982D9095288192238821982B988304C0A8
:1005C000812FB8DFF7018083FFEFEF1AFF0AD9CF41
:1005D000C90DD11D80E0AEDF888361E0F60184851E
:1005E000DF91CF911F910F91FF90EF90DF90CF900F
:1005F000BF90AF909F908F907F901DC6FC01648745
:10060000458708958CB58F7D8CBD8CB5837F8CBD5F
:100610000895EF92FF921F93CF93DF931F92CDB770
:10062000DEB77C01162F60E0FC018485498303D688
:10063000812F8E777FDF4981842F7CDF61E0F70196
:1006400084850F90DF91CF911F91FF90EF90F3C5BC
:10065000CF92DF92EF92FF920F931F93CF93DF938E
:100660001F921F92CDB7DEB78C01E62EF42E60E00C
:10067000FC01848529833A83DED58E2D8E775ADF5F
:100680002981E22EC22E3A81D32E8C2D8E198F1500
:1006900028F4F60181916F014DDFF7CF61E0F80199
:1006A00084850F900F90DF91CF911F910F91FF9054
:1006B000EF90DF90CF90BFC51F93CF93DF93EC01F6
:1006C000162F60E08C85B7D5812F8E77806832DF5A
:1006D00080E030DF182F61E08C85ADD5812FDF9170
:1006E000CF911F9108950F9341112BDF0F91089522
:1006F000EF92FF921F93CF93DF931F92CDB7DEB798
:100700007C01162F4983D8DF4981482B612FC7010F
:100710000F90DF91CF911F91FF90EF907ACFEF92E2
:10072000FF921F93CF93DF931F92CDB7DEB77C016B
:10073000162F4983C1DF498140954823612FC701A6
:100740000F90DF91CF911F91FF90EF9062CFDF92DA
:10075000EF92FF920F931F93CF93DF93EC018B01E6
:10076000D42E790140E062E054DF44E06AE0CE013B
:1007700050DF40E864E1CE01BBDF98014D2D62E11E
:10078000CE0166DF43E062E0CE0143DF08E813E11B
:100790006AE0CE0191DF82FD05C001501109C1F769
:1007A00084E00FC040E062E0CE0133DF64E4CE01BC
:1007B00083DFF701808362E4CE017EDFF70181836E
:1007C00081E0DF91CF911F910F91FF90EF90DF902B
:1007D0000895CF93DF93EC014FE062E01ADF62E30C
:1007E00070E080E090E014D462E0CE0165DF84FD2B
:1007F000FBCFDF91CF910895CF93DF93EC0168E2B7
:100800005BDF982F9370933039F0482F436068E294
:10081000CE01DF91CF91FDCEDF91CF910895CF939F
:10082000DF93EC0161E08C85CDD461E08C8503D54C
:1008300061E08D85C7D4CE01E5DE8D8531D5892B6C
:1008400049F461E08D85F7D462E370E080E090E0E8
:10085000DFD302C0CE01BDDF40E864E5CE01D9DEC2
:1008600049EA66E5CE01D5DE43E068E5CE01D1DE9A
:1008700048EE6AE5CE01CDDE40E46AE2CE01C9DE93
:100880004DE362E2CE01C5DECE01DF91CF91B4CF60
:100890006CE412DF807708951F93CF93DF93EC0110
:1008A000162FF6DF811761F040E76CE4CE0137DFE9
:1008B000412F40776CE4CE01DF91CF911F9118CF8B
:1008C000DF91CF911F9108952F923F925F926F9287
:1008D0007F928F929F92AF92BF92CF92DF92EF92D0
:1008E000FF920F931F93CF93DF9300D01F92CDB74A
:1008F000DEB73C01962E542E302E082DA114B104E3
:1009000019F0F501408101C040E0242EF0E10F9F75
:10091000200C112440E062E0C3012B833C8379DE8C
:100920004FE768E0C30175DE40E864E1C301E0DE43
:100930002B813C81432D62E1C3018ADE422D6AE1B5
:10094000C30167DE492D62E0C30163DE8CE09812CB
:1009500004C040E86AE1C301CBDE90ED292E97E0A8
:10096000392E68E0C301A8DE982F952139F480FD67
:100970005DC0E1E02E1A3108A1F758C06CE0C30158
:100980009BDE982E837109F053C0E114F104D9F075
:10099000C114D104C1F064E1C3018EDE482FF60119
:1009A0008081841708F446C04083970162E1C30147
:1009B0009ADE68E1C30180DE182F1770A114B1041C
:1009C00011F0F501108393FC37C0E114F104B1F18B
:1009D000C114D10499F1898D882381F1F6014081F8
:1009E000413019F4143019F41FC0423010F488E07B
:1009F00026C01111FCCF42509E012F5F3F4FB7011F
:100A0000C301A5DE8130D9F4F6018081E80EF11C26
:100A1000F7013297908189819813E9CF31969081BF
:100A20008A819813E4CF0AC089E009C084E007C036
:100A300082E005C085E003C083E001C081E00F9043
:100A40000F900F900F90DF91CF911F910F91FF901A
:100A5000EF90DF90CF90BF90AF909F908F907F905E
:100A60006F905F903F902F9008958F92AF92BF92BA
:100A7000CF92DF92EF92FF920F931F93AF928C2C45
:100A8000570168017901042F9B0140E36CE01CDFF2
:100A90000F901F910F91FF90EF90DF90CF90BF903C
:100AA000AF908F9008954F925F926F927F928F9246
:100AB0009F92AF92CF92EF92FF920F931F93CF939B
:100AC000DF931F921F92CDB7DEB73C016A832A01E4
:100AD00049014115510521F1F9018081823000F170
:100AE00040E86CE1C3011BDE87E08983A12CC12CA7
:100AF000CE0101967C018401920141E0BE016E5F4E
:100B00007F4FC301B2DF813061F4F4018081823014
:100B100011F082E006C089818111FBCF81E001C024
:100B200085E00F900F90DF91CF911F910F91FF9073
:100B3000EF90CF90AF909F908F907F906F905F904D
:100B40004F9008959A01AB0166E2ADCF2F923F928C
:100B50004F925F926F927F928F929F92AF92BF92CD
:100B6000CF92DF92EF92FF920F931F93CF93DF9379
:100B7000CDB7DEB72D970FB6F894DEBF0FBECDBF51
:100B80003C012B01342E20E5241708F406C140E86F
:100B90006CE1C5DDBB24B39432E0B31691F043E0C1
:100BA000B416E1F081E0B812FCC083E989833320F8
:100BB000D1F041E0D2018C91853008F440E0D12C95
:100BC00017C085E98983332081F041E0F2018081FB
:100BD000883008F440E073E0D72E0AC087E98983A3
:100BE00066E0D62E04C0D12C02C053E0D52E40E0E2
:100BF000532DF8EFDF9E500D112457FD50E0442394
:100C000021F088E88B8373E001C072E091E0852FCA
:100C1000877009F490E0852F859585958595890FD6
:100C200021F4442311F1585F20C0442311F063E004
:100C300001C064E0861708F4682F80E090E092011C
:100C40002D0D311DE72FE80FA1E0B0E0AC0FBD1F67
:100C5000AE0FB11DFD01D901A80FB91F1196AC91BE
:100C6000A0830196861770F3DCCF43E0242E503228
:100C7000FCF0B0E7BA838C819B8189279D8189270D
:100C80009E8189278F839E01285F3F4F47E0BE01E9
:100C90006F5F7F4FC3015D875ADD5D85813009F04D
:100CA000CAC01B862A86FE0137964F0179E01EC016
:100CB000952F97709B87252F25952595259582E063
:100CC000820F392FF0E18F9F300D11243A8371E0AC
:100CD000911101C070E0780F88248394912C8C0EC0
:100CE0009D1E880E911C87E0821B8A87CB844C2D29
:100CF0004295407F4C0D6AE1C3015D877C8789DCAA
:100D0000A12C9E01255F3F4F79018E01065F1F4F89
:100D100094017C85472FBE016F5F7F4FC301A5DE25
:100D20005D85833099F56CE1C301C6DC5D8585FD89
:100D300036C0482F4F7109F440E2842F90E0252FF0
:100D4000332727FD3095281739075CF5542F019775
:100D500087709927242F2595259525952F5F31E0BC
:100D6000811101C030E0230FE1E0F0E0EC0FFD1F46
:100D7000E20FF11DA1E0B0E002C0AA0FBB1F8A95EF
:100D8000E2F7CD019081982B908371CF813009F0EB
:100D900052C0503244F450E26CCF87E04CC083E044
:100DA0004AC086E048C08B81883819F052E044E0A0
:100DB00002C053E043E080E090E092012D0D311D30
:100DC000F901E80FF91F652F680FA1E0B0E0AC0F43
:100DD000BD1FA60FB11D6C9161830196841780F32E
:100DE0008A85833029F58B85811122C09E012D5F74
:100DF0003F4F41E0B401C301AADC8130E1F49B81A3
:100E0000F4018181981316C09C818281981312C0CD
:100E1000808182FF02C0B394BFCED2011B968C9317
:100E20001B978B2D880F8B0D8F5F8C9381E003C0F8
:100E300082E001C088E02D960FB6F894DEBF0FBEA9
:100E4000CDBFDF91CF911F910F91FF90EF90DF9079
:100E5000CF90BF90AF909F908F907F906F905F905A
:100E60004F903F902F9008958F929F92AF92CF9284
:100E7000EF92FF920F931F93CF93DF9300D01F92B7
:100E8000CDB7DEB74C0180E589831A829E012D5FC4
:100E90003F4F42E0BE016F5F7F4FC40158DC81309D
:100EA000A9F4A12CC12CE12CF12C00E010E020E0F1
:100EB00030E044E0BE016F5F7F4FC401D6DD843077
:100EC00021F0813019F482E001C081E00F900F9091
:100ED0000F900F90DF91CF911F910F91FF90EF90A6
:100EE000CF90AF909F908F900895CF93DF9300D0D5
:100EF000CDB7DEB722E02B83AE014D5F5F4FBE0161
:100F00006F5F7F4F1FDE813031F091E0833009F059
:100F100090E0892F01C081E00F900F900F90DF913A
:100F2000CF91089540E0BC0111DE91E0813009F0DD
:100F300090E0892F08951F920F920FB60F921124FF
:100F40002F933F938F939F93AF93BF93809185028D
:100F500090918602A0918702B0918802309184021C
:100F600023E0230F2D3720F40196A11DB11D05C0EC
:100F700026E8230F0296A11DB11D209384028093C1
:100F8000850290938602A0938702B0938802809195
:100F9000890290918A02A0918B02B0918C020196F5
:100FA000A11DB11D8093890290938A02A0938B02A8
:100FB000B0938C02BF91AF919F918F913F912F91F0
:100FC0000F900FBE0F901F9018953FB7F894809127
:100FD000890290918A02A0918B02B0918C0226B571
:100FE000A89B05C02F3F19F00196A11DB11D3FBF61
:100FF0006627782F892F9A2F620F711D811D911DF1
:1010000042E0660F771F881F991F4A95D1F7089510
:10101000CF92DF92EF92FF92CF93DF936B017C012F
:10102000D4DFEB01C114D104E104F10479F041D41F
:10103000CCDF6C1B7D0B683E7340A0F381E0C81AC7
:10104000D108E108F108C851DC4FECCFDF91CF9116
:10105000FF90EF90DF90CF900895789484B58260F0
:1010600084BD84B5816084BD85B5826085BD85B54C
:10107000816085BDEEE6F0E0808181608083E1E8FB
:10108000F0E0108280818260808380818160808333
:10109000E0E8F0E0808181608083E1EBF0E0808136
:1010A00084608083E0EBF0E0808181608083E1E90F
:1010B000F0E0808182608083808181608083E0E9CC
:1010C000F0E0808181608083E1EAF0E080818260ED
:1010D0008083808181608083E0EAF0E080818160AC
:1010E0008083E1E2F1E080818260808380818160A1
:1010F0008083E0E2F1E0808181608083EAE7F0E0D4
:10110000808184608083808182608083808181602F
:1011100080838081806880831092C100089590E070
:10112000FC013197E231F10508F04BC0EE58FF4F5A
:10113000E3C3809180008F7703C0809180008F7D12
:1011400080938000089580918000877FF9CF84B5D7
:101150008F7702C084B58F7D84BD08958091B000E3
:101160008F7703C08091B0008F7D8093B000089589
:10117000809190008F7707C0809190008F7D03C091
:1011800080919000877F8093900008958091A000C7
:101190008F7707C08091A0008F7D03C08091A00051
:1011A000877F8093A0000895809120018F7707C0EA
:1011B000809120018F7D03C080912001877F8093E3
:1011C00020010895CF93DF9390E0FC01E25BFE4F96
:1011D0002491FC01EC56FE4F8491882349F190E064
:1011E000880F991FFC01E25FFD4FA591B4918C50CF
:1011F0009E4FFC01C591D4919FB7611108C0F8942E
:101200008C91209582238C93888182230AC062303E
:1012100051F4F8948C91322F309583238C938881EC
:10122000822B888304C0F8948C91822B8C939FBF6F
:10123000DF91CF9108950F931F93CF93DF931F9268
:10124000CDB7DEB7282F30E0F901E85FFE4F84917B
:10125000F901E25BFE4F1491F901EC56FE4F049147
:101260000023C1F0882319F0698359DF6981E02FD9
:10127000F0E0EE0FFF1FEC50FE4FA591B4919FB729
:10128000F8948C91611103C01095812301C0812BCA
:101290008C939FBF0F90DF91CF911F910F91089575
:1012A000CF93DF93282F30E0F901E85FFE4F849160
:1012B000F901E25BFE4FD491F901EC56FE4FC49167
:1012C000CC2389F081112BDFEC2FF0E0EE0FFF1F14
:1012D000E652FE4FA591B4912C912D2381E090E030
:1012E00021F480E002C080E090E0DF91CF9108958A
:1012F000FC01818D228D90E0805C9F4F821B9109C3
:101300008F7399270895FC01918D828D981731F084
:10131000828DE80FF11D858D90E008958FEF9FEF8E
:101320000895FC01918D828D981761F0828DDF0107
:10133000A80FB11D5D968C91928D9F5F9F73928FC8
:1013400090E008958FEF9FEF089586E49BE0892B4E
:1013500039F080E090E0892B19F098D1811125C0F7
:1013600080E090E0892B41F080E090E0892B21F033
:101370000E94000081111CC080E090E0892B41F0A8
:1013800080E090E0892B21F00E940000811113C0C1
:1013900080E090E0892BA1F080E090E0892B81F043
:1013A0000E94000081110AC008950E940000D8CF59
:1013B0000E940000E1CF0E940000EACF0C940000E0
:1013C0000895FC01848DDF01A80FB11DA35ABF4F02
:1013D0002C91848D90E001968F739927848FA68934
:1013E000B7892C93A089B1898C9180648C93938D5B
:1013F000848D981306C00288F389E02D80818F7D4B
:1014000080830895CF93DF93EC01888D8823C1F00A
:10141000EA89FB89808185FD05C0A889B9898C91FD
:1014200086FD0EC00FB607FCF5CF808185FFF2CF99
:10143000A889B9898C9185FFEDCFCE01C2DFE8CFB5
:10144000DF91CF910895CF92DF92FF920F931F9378
:10145000CF93DF931F92CDB7DEB76C0181E0D60149
:1014600058968C9358975B969C915B975C968C9161
:101470005C97981307C05096ED91FC91519780812D
:1014800085FD2DC0F601038D10E00F5F1F4F0F7318
:101490001127F02EF601848DF81210C00FB607FC4C
:1014A000F9CFD6015096ED91FC915197808185FF3F
:1014B000F1CFC601698385DF6981ECCF838DE80FA9
:1014C000F11DE35AFF4F6083D6015B960C935B9747
:1014D0005296ED91FC915397808180620CC0D601A9
:1014E0005696ED91FC91579760835096ED91FC9143
:1014F000519780818064808381E090E00F90DF913C
:10150000CF911F910F91FF90DF90CF900895BF92E0
:10151000CF92DF92EF92FF92CF93DF93EC016A01BB
:101520007B01B22EE889F98982E08083411581EE42
:1015300058076105710599F060E079E08DE390E06E
:10154000A7019601B7D1215031094109510956959A
:10155000479537952795211580E1380790F0E88960
:10156000F989108260E874E88EE190E0A7019601A5
:10157000A1D1215031094109510956954795379517
:101580002795EC85FD853083EE85FF852083188EB9
:10159000EC89FD89B082EA89FB8980818061808342
:1015A000EA89FB89808188608083EA89FB89808160
:1015B00080688083EA89FB8980818F7D8083DF91C9
:1015C000CF91FF90EF90DF90CF90BF9008951F9242
:1015D0000F920FB60F9211240BB60F922F938F9389
:1015E0009F93EF93FF93E0919D02F0919E02808183
:1015F000E091A302F091A40282FD12C0908180913B
:10160000A6028F5F8F732091A702821751F0E0919D
:10161000A602F0E0E357FD4F958F8093A60201C02C
:101620008081FF91EF919F918F912F910F900BBE31
:101630000F900FBE0F901F9018951F920F920FB62C
:101640000F9211240BB60F922F933F934F935F93FA
:101650006F937F938F939F93AF93BF93EF93FF937A
:101660008DE892E0AEDEFF91EF91BF91AF919F9137
:101670008F917F916F915F914F913F912F910F903B
:101680000BBE0F900FBE0F901F9018958DE892E043
:101690002FDE21E0892B09F420E0822F089510929B
:1016A000900210928F0288EE93E0A0E0B0E0809369
:1016B000910290939202A0939302B093940281E5D9
:1016C00092E090938E0280938D0285EC90E090934F
:1016D0009A028093990284EC90E090939C0280930C
:1016E0009B0280EC90E090939E0280939D0281EC9F
:1016F00090E09093A00280939F0282EC90E0909300
:10170000A2028093A10286EC90E09093A4028093C1
:10171000A3021092A6021092A7021092A8021092A1
:10172000A9020895CF92DF92EF92FF920F931F9339
:10173000CF93DF937C016A01EB0100E010E00C1510
:101740001D0571F06991D701ED91FC910190F08137
:10175000E02DC7011995892B19F00F5F1F4FEFCFAF
:10176000C801DF91CF911F910F91FF90EF90DF9013
:10177000CF9008956115710581F0DB010D90002077
:10178000E9F7AD0141505109461B570BDC01ED91C2
:10179000FC910280F381E02D199480E090E008959F
:1017A0006DE572E0E7CF0F931F93CF93DF93EC01CA
:1017B000E1DF8C01CE01F4DF800F911FDF91CF912B
:1017C0001F910F9108958F929F92AF92BF92CF92E7
:1017D000DF92EF92FF920F931F93CF93DF93CDB7DA
:1017E000DEB7A1970FB6F894DEBF0FBECDBF7C0168
:1017F000C42EE52FCB01D22E19A221E02D1510F019
:101800002AE0D22E8E010F5D1F4F8D2C912CA12C22
:10181000B12C6C2D7E2FA50194014CD08C2DD29E25
:1018200080191124015011098A3014F4805D01C01F
:10183000895CF8018083211531054105510521F0AE
:10184000C22EE32FCA01E5CFB801C70193DFA196ED
:101850000FB6F894DEBF0FBECDBFDF91CF911F91C1
:101860000F91FF90EF90DF90CF90BF90AF909F903F
:101870008F9008952115310541F4DC01ED91FC9123
:101880000190F081E02D642F19949DCF9A01462F8D
:1018900050E060E070E0EECF0895DFDBFDDF0E94F6
:1018A0004801C5EAD9E00E94F9012097E1F34DDD36
:1018B000FACF0895A1E21A2EAA1BBB1BFD010DC091
:1018C000AA1FBB1FEE1FFF1FA217B307E407F507F0
:1018D00020F0A21BB30BE40BF50B661F771F881FCC
:1018E000991F1A9469F760957095809590959B0162
:1018F000AC01BD01CF010895EE0FFF1F0590F491DB
:10190000E02D19940790F691E02D1994F894FFCFEB
:10191000A31B630202631BA35363616E6E656420A5
:101920005549443A00476F20546F2048656C6C005D
:10193000596F752063616E20656E746572204D72FB
:1019400020426C756500596F752063616E20656E6D
:10195000746572204D72205768697465000000003C
:1019600000230A920B780991098309020A0D0A00E3
:0E1970006E616E00696E66006F7666002E0076
:020000023000CC
:10E000000D9489F10D94B2F10D94B2F10D94B2F129
:10E010000D94B2F10D94B2F10D94B2F10D94B2F1F0
:10E020000D94B2F10D94B2F10D94B2F10D94B2F1E0
:10E030000D94B2F10D94B2F10D94B2F10D94B2F1D0
:10E040000D94B2F10D94B2F10D94B2F10D94B2F1C0
:10E050000D94B2F10D94B2F10D94B2F10D94B2F1B0
:10E060000D94B2F10D94B2F10D94B2F10D94B2F1A0
:10E070000D94B2F10D94B2F10D94B2F10D94B2F190
:10E080000D94B2F10D94B2F10D94B2F10D94B2F180
:10E090000D94B2F10D94B2F10D94B2F10D94B2F170
:10E0A0000D94B2F10D94B2F10D94B2F10D94B2F160
:10E0B0000D94B2F10D94B2F10D94B2F10D94B2F150
:10E0C0000D94B2F10D94B2F10D94B2F10D94B2F140
:10E0D0000D94B2F10D94B2F10D94B2F10D94B2F130
:10E0E0000D94B2F141546D656761323536300041AF
:10E0F000726475696E6F206578706C6F72657220DE
:10E1000073746B3530305632206279204D4C530099
:10E11000426F6F746C6F616465723E004875683F52
:10E1200000436F6D70696C6564206F6E203D200048
:10E130004350552054797065202020203D20005FF9
:10E140005F4156525F415243485F5F3D2000415658
:10E1500052204C696243205665723D20004743437C
:10E160002056657273696F6E203D20004350552024
:10E1700049442020202020203D20004C6F7720663D
:10E18000757365202020203D20004869676820665F
:10E190007573652020203D200045787420667573D6
:10E1A00065202020203D20004C6F636B2066757336
:10E1B000652020203D20004D617220203720323024
:10E1C000313300312E362E3800342E332E350056A2
:10E1D00023202020414444522020206F7020636F70
:10E1E00064652020202020696E73747275637469E1
:10E1F0006F6E2061646472202020496E74657272B3
:10E20000757074006E6F20766563746F7200726A49
:10E210006D702020006A6D70200057686174207056
:10E220006F72743A00506F7274206E6F7420737541
:10E2300070706F72746564004D7573742062652030
:10E2400061206C6574746572002000577269747483
:10E25000696E672045450052656164696E672045B7
:10E26000450045452065727220636E743D00504F35
:10E27000525400303D5A65726F2061646472003FF1
:10E280003D43505520737461747300403D454550C3
:10E29000524F4D207465737400423D426C696E6B41
:10E2A000204C454400453D44756D70204545505215
:10E2B0004F4D00463D44756D7020464C415348001B
:10E2C000483D48656C70004C3D4C69737420492F83
:10E2D0004F20506F72747300513D51756974005234
:10E2E0003D44756D702052414D00563D73686F7707
:10E2F00020696E7465727275707420566563746FF0
:10E30000727300593D506F727420626C696E6B00BD
:10E310002A0011241FBECFEFD1E2DEBFCDBF01E046
:10E320000CBF12E0A0E0B2E0EEE1FDEF03E00BBFB6
:10E3300002C007900D92A030B107D9F712E0A0E01B
:10E34000B2E001C01D92AE30B107E1F70F9460F367
:10E350000D948DFE01E20EBF0FEF0DBF11241FBE05
:10E360000D9460F30D9400F020E030E040ED57E0B4
:10E3700005C0FA013197F1F72F5F3F4F2817390792
:10E38000C0F308959C01260F311DC901A0E0B0E043
:10E390002F5F3F4FABBFFC018791882361F08093D3
:10E3A000C6008091C00086FFFCCF8091C0008064D1
:10E3B0008093C000EACF08958DE08093C6008091DD
:10E3C000C00086FFFCCF8091C00080648093C000B5
:10E3D0008AE08093C6008091C00086FFFCCF8091C8
:10E3E000C00080648093C00008950F94C2F10F9420
:10E3F000DCF10895FC019081992359F09093C600B7
:10E400008091C00086FFFCCF8091C0008064809323
:10E41000C0003196992379F70895282F982F929567
:10E420009F70892F805D8A3308F0895F8093C600D2
:10E430008091C00086FFFCCF8091C00080648093F3
:10E44000C000822F8F70982F905D9A3308F0995FEB
:10E450009093C6008091C00086FFFCCF8091C000E1
:10E4600080648093C00008959C01FB01853691056E
:10E470001CF46330710594F0C90164E670E00F94F8
:10E480002EFE605D7F4F6093C6008091C00086FFC6
:10E49000FCCF8091C00080648093C0002B30310598
:10E4A00014F43297B4F0C90164E670E00F942EFEC4
:10E4B0006AE070E00F942EFE605D7F4F6093C600AF
:10E4C0008091C00086FFFCCF8091C0008064809363
:10E4D000C000C9016AE070E00F942EFEC0968093E0
:10E4E000C6008091C00086FFFCCF8091C000806490
:10E4F0008093C00008951F93182F8EE692EE60E07F
:10E500000F94C2F11093C6008091C00086FFFCCF2B
:10E510008091C00080648093C0000F94DCF11F9153
:10E5200008952F923F924F925F926F927F928F92B7
:10E530009F92AF92BF92CF92DF92EF92FF920F9392
:10E540001F93DF93CF93CDB7DEB762970FB6F894E2
:10E55000DEBF0FBECDBF382E622ECA01DB015C01CB
:10E560006D01772420E2222E2E010894411C511CBB
:10E570008BC081E0A81680E0B80681E0C80680E084
:10E58000D80628F0C601AA27BB270F940DF2BB2797
:10E59000AD2D9C2D8B2D0F940DF28A2D0F940DF225
:10E5A0002092C6008091C00086FFFCCF8091C00001
:10E5B00080648093C0009DE29093C6008091C0006B
:10E5C00086FFFCCF8091C00080648093C0002092C1
:10E5D000C6008091C00086FFFCCF8091C00080649F
:10E5E0008093C00019828601750188249924A1E0D6
:10E5F0003A1651F03A1620F0B2E03B1661F409C029
:10E600000BBFF701779007C0C7010F9477FE782EF4
:10E6100002C0F7017080872D0F940DF22092C60082
:10E620008091C00086FFFCCF8091C0008064809301
:10E63000C000872D8052F401EF70F0708F3520F408
:10E64000E40DF51D708204C0E40DF51D8EE280839B
:10E650000894E11CF11C011D111D0894811C911CE2
:10E6600090E18916910409F0C2CF80E190E0A0E02A
:10E67000B0E0A80EB91ECA1EDB1E198AC2010F9493
:10E68000FAF10F94DCF16A94662009F072CF629679
:10E690000FB6F894DEBF0FBECDBFCF91DF911F91B3
:10E6A0000F91FF90EF90DF90CF90BF90AF909F9031
:10E6B0008F907F906F905F904F903F902F90089534
:10E6C0002F923F924F925F926F927F928F929F9282
:10E6D000AF92BF92CF92DF92EF92FF920F931F9370
:10E6E000DF93CF93CDB7DEB7CD53D1400FB6F894BB
:10E6F000DEBF0FBECDBF01E20EBF0FEF0DBF94B75F
:10E70000F894A89514BE80916000886180936000A1
:10E7100010926000789493FF05C0E0910002F091A0
:10E7200001021995279A2F9A8091C00082608093E8
:10E73000C00080E18093C40088E18093C1000000A4
:10E74000EE24FF24870144E0A42EB12CCC24DD2448
:10E7500024C0C5010197F1F70894E11CF11C011DCB
:10E76000111D21E2E2162EE4F20620E0020720E06D
:10E77000120718F031E0C32ED12CC801B70127ECE5
:10E780003BE140E050E00F9441FE611571058105C9
:10E79000910519F485B1805885B98091C00087FD35
:10E7A00003C0C114D104A9F2A6014F5F5F4FC25E3E
:10E7B000DE4F59834883CE51D140C25EDE4F8881FF
:10E7C0009981CE51D140019711F00D9410FEC05D9A
:10E7D000DE4F19821882C053D14060E0C15DDE4F28
:10E7E0001882CF52D14088249924C35DDE4F19820C
:10E7F0001882CD52D140C05EDE4F188219821A8233
:10E800001B82C052D140CE5CDE4F188219821A8220
:10E810001B82C253D140EE24FF2487010BBFF701B6
:10E8200007911691C45CDE4F19830883CC53D14005
:10E830000D940BFEC25EDE4F28813981CE51D1404E
:10E840002130310509F52091C600C25EDE4F1982E4
:10E850001882CE51D14022C02F5F3F4F4F4F5F4FA4
:10E86000213082E138078AE7480780E0580780F0C6
:10E87000C45CDE4FE881F981CC53D140EF5FFF4F9C
:10E8800019F0EE27FF27099420E030E040E050E047
:10E890008091C00087FFE0CF2091C600C35DDE4FAE
:10E8A00048815981CD52D1404F5F5F4FC35DDE4FEC
:10E8B00059834883CD52D140213209F063C64A3092
:10E8C000510508F05FC60894811C911C53E0851621
:10E8D000910409F059C600E010E018C081E280936D
:10E8E000C6008091C00086FFFCCF8091C00080648C
:10E8F0008093C0002F5F3F4F2931310579F70F9486
:10E90000DCF10F5F1F4F0530110519F020E030E0FA
:10E91000E5CF10920A0210920B0210920C02109294
:10E920000D02109206021092070210920802109235
:10E930000902109202021092030210920402109235
:10E9400005028FEE90EE60E00F94F5F180E191EE1C
:10E9500060E00F94C2F18091C00087FFFCCF9091DE
:10E96000C600903608F09F759032B8F09093C600BC
:10E970008091C00086FFFCCF8091C00080648093AE
:10E98000C000A0E2A093C6008091C00086FFFCCF2B
:10E990008091C00080648093C000983409F4D7C18E
:10E9A0009934B8F4923409F459C1933458F490333B
:10E9B00019F1903308F4E3C59F33A1F1903409F0C5
:10E9C000DEC5BDC0953409F470C1963409F0D7C5D1
:10E9D00098C1923509F42BC2933538F49C3409F46C
:10E9E000F5C1913509F0CBC518C2963509F445C279
:10E9F000993509F0C4C567C483E792EE62E00F94CD
:10EA0000F5F110920602109207021092080210927D
:10EA1000090210920A0210920B0210920C0210923C
:10EA20000D0213C18FE792EE62E00F94F5F18FEEC5
:10EA300090EE60E00F94F5F181E291EE60E00F94CA
:10EA4000C2F187EB91EE60E00F94F5F180E391EE77
:10EA500060E00F94C2F184EE90EE60E00F94F5F167
:10EA60008FE391EE60E00F94C2F186E090E061E008
:10EA700070E00F9434F20F94DCF18DE591EE60E0DC
:10EA80000F94C2F189EC91EE60E00F94F5F18EE401
:10EA900091EE60E00F94C2F183EC91EE60E00F9490
:10EAA000F5F18CE691EE60E00F94C2F18EE10F94E7
:10EAB0000DF288E90F940DF281E00F940DF20F949E
:10EAC000DCF18BE791EE60E00F94C2F119E0E0E039
:10EAD000F0E010935700E4918E2F0F940DF20F94F5
:10EAE000DCF18AE891EE60E00F94C2F1E3E0F0E03F
:10EAF00010935700E4918E2F0F940DF20F94DCF1D8
:10EB000089E991EE60E00F94C2F1E2E0F0E0109349
:10EB10005700E4918E2F0F940DF20F94DCF188EAE8
:10EB200091EE60E00F94C2F1E1E0F0E01093570045
:10EB30001491812F0F940DF20F94DCF107CF8BE825
:10EB400092EE62E00F94F5F18BE492EE60E00F94A8
:10EB5000F5F10F94DCF100E010E019C0C8016F2D51
:10EB60000F947FFEFF2031F489E492EE60E00F9471
:10EB7000C2F10BC0F092C6008091C00086FFFCCFAE
:10EB80008091C00080648093C0000F5F1F4FC80158
:10EB900081519F41A0E0B0E0ABBFFC01F790BAE229
:10EBA000FB1621F0E2E000301E07C1F60F94DCF105
:10EBB0000F94DCF187E592EE60E00F94F5F10F948D
:10EBC000DCF1CC24DD2400E010E01EC0C8010F946D
:10EBD00077FEF82E882331F489E492EE60E00F94FA
:10EBE000C2F10BC08093C6008091C00086FFFCCFAD
:10EBF0008091C00080648093C000FE1419F00894D6
:10EC0000C11CD11C0F5F1F4FC80181519F41A0E063
:10EC1000B0E0ABBFFC01E790FAE2EF1621F022E092
:10EC20000030120799F60F94DCF10F94DCF182E6C4
:10EC300092EE60E00F94C2F1C60161E070E00F94C3
:10EC400034F20F94DCF10F94DCF110920202109276
:10EC50000302109204021092050278CE89E992EE26
:10EC600062E00F94F5F1279A2F9A16C02F9880E052
:10EC700090E0E0EDF7E03197F1F7019684369105E9
:10EC8000C1F72F9A80E090E0E0EDF7E03197F1F7DF
:10EC9000019684369105C1F78091C00087FFE6CFC9
:10ECA0008091C00087FFFCCF64C485EA92EE62E0E9
:10ECB0000F94F5F140910202509103026091040219
:10ECC0007091050281E020E10F9491F2809102029F
:10ECD00090910302A0910402B091050280509F4FD1
:10ECE000AF4FBF4F8093020290930302A0930402A0
:10ECF000B093050280509041A040B04008F426CE69
:10ED0000A4CF83EB92EE62E00F94F5F140910602FE
:10ED100050910702609108027091090280E020E1A1
:10ED20000F9491F28091060290910702A09108023F
:10ED3000B091090280509F4FAF4FBF4F80930602A2
:10ED400090930702A0930802B0930902FFCD80ECD4
:10ED500092EE62E00F94F5F183E792EE60E00F949B
:10ED6000F5F18FE792EE60E00F94F5F18BE892EE0B
:10ED700060E00F94F5F189E992EE60E00F94F5F10F
:10ED800085EA92EE60E00F94F5F183EB92EE60E09D
:10ED90000F94F5F180EC92EE60E00F94F5F187ECC2
:10EDA00092EE60E00F94F5F188ED92EE60E00F9442
:10EDB000F5F18FED92EE60E00F94F5F18AEE92EEB0
:10EDC00060E00F94F5F183E093EEBDCD87EC92EE19
:10EDD00062E00F94F5F181E40F947BF282E40F94EA
:10EDE0007BF283E40F947BF284E40F947BF285E45E
:10EDF0000F947BF286E40F947BF287E40F947BF20E
:10EE000088E40F947BF28AE40F947BF28BE40F94F6
:10EE10007BF28CE40F947BF299CD88ED92EE62E068
:10EE20000F94F5F1772473948824992409C48FED05
:10EE300092EE62E00F94F5F140910A0250910B02BC
:10EE400060910C0270910D0282E020E10F9491F22A
:10EE500080910A0290910B02A0910C02B0910D02D8
:10EE600080509F4FAF4FBF4F80930A0290930B0289
:10EE7000A0930C02B0930D0269CD8AEE92EE62E08F
:10EE80000F94F5F184EE90EE60E00F94F5F18FECC5
:10EE900091EE60E00F94F5F1662477244301CC5D98
:10EEA000DE4F19821882C452D140D401C301B695F5
:10EEB000A79597958795CA5DDE4F88839983AA8326
:10EEC000BB83C652D140CC5DDE4FA881B981C4520C
:10EED000D1401196CC5DDE4FB983A883C452D14096
:10EEE000CD0162E070E00F9434F2B0E2B093C6005E
:10EEF0008091C00086FFFCCF8091C0008064809329
:10EF0000C000EDE2E093C6008091C00086FFFCCF18
:10EF10008091C00080648093C000F0E2F093C6004E
:10EF20008091C00086FFFCCF8091C00080648093F8
:10EF3000C000CA5DDE4FE880F9800A811B81C6529D
:10EF4000D140BB27A12F902F8F2D0F940DF2CA5DBA
:10EF5000DE4F8881C652D1400F940DF2B0E2FB2EF5
:10EF6000F092C6008091C00086FFFCCF8091C00067
:10EF700080648093C0000DE30093C6008091C000C0
:10EF800086FFFCCF8091C00080648093C00010E2B7
:10EF90001093C6008091C00086FFFCCF8091C00016
:10EFA00080648093C0008BBEF3012791C65DDE4F65
:10EFB0002883CA52D140A22EBB24CC24DD2408943D
:10EFC000611C711C811C911C8BBEF3018791282E42
:10EFD0003324442455240894611C711C811C911C09
:10EFE0008BBEF3013791C55DDE4F3883CB52D140E4
:10EFF0000894611C711C811C911C8BBEF30147910C
:10F00000C45DDE4F4883CC52D140ADEFEA2EAFEF66
:10F01000FA2EAFEF0A2FAFEF1A2F6E0C7F1C801E57
:10F02000911E142D032DF22CEE24EA0CFB1C0C1D5A
:10F030001D1D0F940DF220E22093C6008091C000A8
:10F0400086FFFCCF8091C00080648093C000C65DC5
:10F05000DE4F8881CA52D1400F940DF230E23093D6
:10F06000C6008091C00086FFFCCF8091C000806404
:10F070008093C000C45DDE4F8881CC52D1400F9494
:10F080000DF240E24093C6008091C00086FFFCCFA5
:10F090008091C00080648093C000C55DDE4F888190
:10F0A000CB52D1400F940DF250E25093C6008091A4
:10F0B000C00086FFFCCF8091C00080648093C000B8
:10F0C0008FEFE8168FEFF80680E0080780E018075A
:10F0D00031F484E092EE60E00F94C2F1DFC0D80119
:10F0E000C7018070907CA070B0708050904CA040A0
:10F0F000B040D1F52FEF3FE340E050E0E222F322B1
:10F1000004231523CA5DDE4FA880B980CA80DB8046
:10F11000C652D140AE0CBF1CC01ED11EAA0CBB1CD7
:10F12000CC1CDD1C8EE092EE60E00F94C2F1BB2798
:10F13000A12F902F8F2D0F940DF28E2D0F940DF285
:10F1400030E23093C6008091C00086FFFCCF8091F2
:10F15000C00080648093C0004EE34093C60080915D
:10F16000C00086FFFCCF87C08EE09EEFA0E0B0E03D
:10F17000E822F9220A231B239CE0E91694E9F90608
:10F1800090E0090790E0190709F088C0C45DDE4FE0
:10F19000A881CC52D140EA2EFF2400E010E0102FCD
:10F1A0000F2DFE2CEE24C55DDE4FB881CB52D14031
:10F1B000EB0EF11C011D111DD601C501817090706F
:10F1C000A070B070DC0199278827E80EF91E0A1F8D
:10F1D0001B1F20EF30E040E050E0A222B322C42207
:10F1E000D52241E1AA0CBB1CCC1CDD1C4A95D1F7F1
:10F1F000EA0CFB1C0C1D1D1D81E090E0A0E0B0E0BE
:10F20000282239224A225B2235E1220C331C441C7D
:10F21000551C3A95D1F7E20CF31C041D151D57013E
:10F220006801AA0CBB1CCC1CDD1C85E192EE60E0E1
:10F230000F94C2F1C801AA27BB270F940DF2BB2778
:10F24000A12F902F8F2D0F940DF28E2D0F940DF274
:10F2500090E29093C6008091C00086FFFCCF809121
:10F26000C00080648093C000AEE3A093C60080918C
:10F27000C00086FFFCCF8091C00080648093C000F6
:10F28000C601AA27BB270F940DF2BB27AD2D9C2DDD
:10F290008B2D0F940DF28A2D0F940DF20F94DCF14B
:10F2A000CC5DDE4FE881F981C452D140F99709F471
:10F2B0004DCBF4E0EF2EF12C012D112D6E0C7F1CA7
:10F2C000801E911EF2CD83E093EE62E00F94F5F183
:10F2D0008AE192EE60E00F94C2F18091C00087FF56
:10F2E000FCCF1091C6001F751093C6008091C0001E
:10F2F00086FFFCCF8091C00080648093C0000F9493
:10F30000DCF1812F81548A3108F036C1163409F4BA
:10F3100095C0173490F4133409F44EC0143430F40B
:10F320001134F1F0123409F01DC130C0143409F465
:10F3300059C0153409F016C16BC01A3409F4C4C0A1
:10F340001B3438F4173409F48FC0183409F00AC19B
:10F35000A1C01B3409F4D2C01C3409F003C1E8C0B9
:10F360008FEF81B90DC082B1809582B980E090E0C5
:10F37000E0EDF7E03197F1F70196883C9105C1F790
:10F380008091C00087FFEFCF12B8EFC08FEF84B934
:10F390000DC085B1809585B980E090E0E0EDF7E0A3
:10F3A0003197F1F70196883C9105C1F78091C00033
:10F3B00087FFEFCF15B8D9C08FEF87B90DC088B1DF
:10F3C000809588B980E090E0E0EDF7E03197F1F7C3
:10F3D0000196883C9105C1F78091C00087FFEFCF6F
:10F3E00018B8C3C08FEF8AB90DC08BB180958BB9A7
:10F3F00080E090E0E0EDF7E03197F1F70196883C8E
:10F400009105C1F78091C00087FFEFCF1BB8ADC059
:10F410008FEF8DB90DC08EB180958EB980E090E0F0
:10F42000E0EDF7E03197F1F70196883C9105C1F7DF
:10F430008091C00087FFEFCF1EB897C08FEF80BBD1
:10F440000DC081B3809581BB80E090E0E0EDF7E0F6
:10F450003197F1F70196883C9105C1F78091C00082
:10F4600087FFEFCF11BA81C08FEF83BB0DC084B38C
:10F47000809584BB80E090E0E0EDF7E03197F1F714
:10F480000196883C9105C1F78091C00087FFEFCFBE
:10F4900014BA6BC08FEF809301010FC080910201FD
:10F4A00080958093020180E090E0E0EDF7E03197F5
:10F4B000F1F70196883C9105C1F78091C00087FF64
:10F4C000EDCF1092020151C08FEF809304010FC065
:10F4D0008091050180958093050180E090E0E0ED4A
:10F4E000F7E03197F1F70196883C9105C1F78091DB
:10F4F000C00087FFEDCF1092050137C08FEF8093DA
:10F5000007010FC08091080180958093080180E079
:10F5100090E0E0EDF7E03197F1F70196883C910536
:10F52000C1F78091C00087FFEDCF109208011DC088
:10F530008FEF80930A010FC080910B01809580931B
:10F540000B0180E090E0E0EDF7E03197F1F70196F4
:10F55000883C9105C1F78091C00087FFEDCF1092E4
:10F560000B0103C085E292EEEEC98091C00087FFD7
:10F57000FCCF8091C600EAC988E392EEE4C98CE131
:10F5800091EEE1C988249924933011F1943028F444
:10F59000913089F09230B8F408C0953061F195301F
:10F5A000F0F0963009F048C043C02B3109F042C951
:10F5B00091E06BE13FC96227C15DDE4F2883CF52E6
:10F5C000D14092E037C9B22FA0E0622793E032C960
:10F5D000822F90E0A82BB92B622794E02BC92E3004
:10F5E00009F039C3622795E0C05DDE4F19821882A9
:10F5F000C053D1401FC9E1E0F0E0EC0FFD1FC05D3A
:10F60000DE4F08811981C053D140E00FF11F2083E4
:10F610000F5F1F4FC05DDE4F19830883C053D14079
:10F6200062270A171B0709F005C9D80196E002C92D
:10F63000261709F010C303C0973009F0FBC87724E0
:10F640009981933109F412C19431C8F4963009F4C8
:10F65000D8C0973050F4923009F406C1933009F4C1
:10F660006DC0913009F059C253C0913109F477C08F
:10F67000923108F0BBC0903109F04FC2F5C098310B
:10F6800009F487C0993150F4953109F4EFC09531F0
:10F6900008F4C6C1963109F040C2C2C19A3109F4DA
:10F6A0006CC09A3108F491C09B3109F45BC09D3164
:10F6B00009F033C29D81903359F48F81882311F46E
:10F6C0009EE11CC0813011F091E018C098E916C08D
:10F6D000892F807591F0903539F4E0E0F0E089E011
:10F6E0008093570094910AC0983539F4E3E0F0E034
:10F6F00089E080935700949101C090E01A821B82A8
:10F700008D818C831D829E831F8227E030E009C299
:10F710001A8288E08B8381E48C8386E58D8382E581
:10F720008E8389E48F8383E5888780E589878FE5E9
:10F730008A8782E38B872BE030E0F3C18A818139AD
:10F7400041F0823941F0803911F48FE005C080E04A
:10F7500003C082E001C08AE01A828B8344C0772410
:10F76000739482C08D81882311F48EE12CC0813086
:10F7700011F081E028C088E926C01A82E1E0F0E0BB
:10F7800089E08093570084918B831C8224E030E0D1
:10F79000C8C18B81803589F48C81883039F4E2E0EE
:10F7A000F0E089E08093570084910DC0E0E0F0E044
:10F7B00089E080935700849106C0E3E0F0E089E09F
:10F7C0008093570084911A82DFCF8D81836C99E0FA
:10F7D000E1E0F0E0082E90935700E89507B600FCB2
:10F7E000FDCF1A821B8223E030E09BC180EC8A832C
:10F7F000CE5CDE4F188219821A821B82C253D1401E
:10F800008EC18A8190E0A0E0B0E0582F44273327D2
:10F8100022278B8190E0A0E0B0E0DC0199278827C7
:10F82000282B392B4A2B5B2B8D8190E0A0E0B0E098
:10F83000282B392B4A2B5B2B8C8190E0A0E0B0E089
:10F84000BA2FA92F982F8827282B392B4A2B5B2BCF
:10F85000220F331F441F551FC05EDE4F288339839C
:10F860004A835B83C052D1401A8259C13A81C95C34
:10F87000DE4F3883C753D140CA5CDE4F1882C6536F
:10F88000D1408B81C82EDD24CA5CDE4F488159816E
:10F89000C653D140C42AD52A933109F082C0CE5C28
:10F8A000DE4F88819981AA81BB81C253D1408050AB
:10F8B000904CA340B04030F583E0CE5CDE4FE88052
:10F8C000F9800A811B81C253D140F70100935B008C
:10F8D00080935700E89507B600FCFDCFCE5CDE4F65
:10F8E000088119812A813B81C253D14000501F4FAA
:10F8F0002F4F3F4FCE5CDE4F088319832A833B8313
:10F90000C253D140C05EDE4F488159816A817B81FC
:10F91000C052D140DE011B9631E08C9111962C91A2
:10F9200011971296C75CDE4F2883C953D140C85C3B
:10F93000DE4F1882C853D14090E0C85CDE4FE881AA
:10F94000F981C853D1408E2B9F2B0C01FA01609393
:10F950005B0030935700E89511244E5F5F4F6F4F67
:10F960007F4F0EEFE02E0FEFF02ECE0CDF1CC114F8
:10F97000D10499F685E0C05EDE4F088119812A81A5
:10F980003B81C052D140F80120935B008093570027
:10F99000E89507B600FCFDCF81E180935700E8951C
:10F9A00035C0C05EDE4F88819981AA81BB81C0527B
:10F9B000D140B695A795979587957C018601ABE0D8
:10F9C000AA2EB12CAC0EBD1E0BC0D5016D915D01F0
:10F9D000C7010F947FFE0894E11CF11C01501040F8
:10F9E0000115110591F7A60160E070E0440F551F65
:10F9F000661F771FC05EDE4FE880F9800A811B8199
:10FA0000C052D1404E0D5F1D601F711F1A82C05E33
:10FA1000DE4F488359836A837B83C052D1407FC0C5
:10FA2000FA80C55CDE4FF882CB53D140C65CDE4F16
:10FA30001882CA53D1408B81C82EDD24C65CDE4FAC
:10FA400008811981CA53D140C02AD12A1A828981DA
:10FA5000BE016D5F7F4F843121F59601C05EDE4FA0
:10FA6000E880F9800A811B81C052D1400BBFF701A9
:10FA700087919691DB018C9311969C936E5F7F4FDB
:10FA8000D801C7010296A11DB11DC05EDE4F88835B
:10FA90009983AA83BB83C052D14022503040F1F6F3
:10FAA00036C0C05EDE4F288139814A815B81C052F9
:10FAB000D1400894C108D108760100E010E0089414
:10FAC000C11CD11C0894E11CF11C011D111DE20E8A
:10FAD000F31E041F151F21BDBB27A52F942F832FB5
:10FAE00082BD2F5F3F4F4F4F5F4FF89A80B5DB01CC
:10FAF0008D93BD012E153F054007510761F7C05E8C
:10FB0000DE4F288339834A835B83C052D1409601FC
:10FB10002D5F3F4FFB01108204C080EC8A8322E0FE
:10FB200030E08BE18093C6008091C00086FFFCCF5F
:10FB30008091C00080648093C000C15DDE4FF88179
:10FB4000CF52D140F093C6008091C00086FFFCCF19
:10FB50008091C00080648093C000432F3093C60022
:10FB60008091C00086FFFCCF8091C00080648093AC
:10FB7000C000922F2093C6008091C00086FFFCCF6A
:10FB80008091C00080648093C0008EE08093C600A6
:10FB90008091C00086FFFCCF8091C000806480937C
:10FBA000C00065E1C15DDE4FE880CF52D1406E25D7
:10FBB00069276427FE01319610C090819093C6009A
:10FBC0008091C00086FFFCCF31968091C000806498
:10FBD0008093C0006927215030402115310569F715
:10FBE0006093C6008091C00086FFFCCF8091C0006A
:10FBF00080648093C00085B1805885B9772081F4F6
:10FC0000C15DDE4F0881CF52D1400F5FC15DDE4F35
:10FC10000883CF52D14090E0A0E0B0E00D941AF4F8
:10FC200027982F9880E090E020ED37E0F901319798
:10FC3000F1F7019684369105C9F700008091C00064
:10FC40008D7F8093C00081E180935700E895EE2777
:10FC5000FF270994FFCF90E00D941AF497FB092E2B
:10FC600007260AD077FD04D02ED006D000201AF443
:10FC7000709561957F4F0895F6F7909581959F4F08
:10FC80000895A1E21A2EAA1BBB1BFD010DC0AA1FDD
:10FC9000BB1FEE1FFF1FA217B307E407F50720F0F5
:10FCA000A21BB30BE40BF50B661F771F881F991F70
:10FCB0001A9469F760957095809590959B01AC01B9
:10FCC000BD01CF010895AA1BBB1B51E107C0AA1FAC
:10FCD000BB1FA617B70710F0A61BB70B881F991FED
:10FCE0005A95A9F780959095BC01CD010895F99991
:10FCF000FECF92BD81BDF89A992780B50895262F31
:10FD0000F999FECF1FBA92BD81BD20BD0FB6F89400
:0EFD1000FA9AF99A0FBE01960895F894FFCF63
:040000033000E000E9
:00000001FF
