:100000000C946B000C9493000C9493000C9493004C
:100010000C9493000C9493000C9493000C94930014
:100020000C9493000C9493000C9493000C9454073C
:100030000C9493000C94F8090C942A0A0C949300E5
:100040000C9493000C9493000C9493000C949300E4
:100050000C9493000000000100000000000000006C
:100060000403000600000000000000000000000083
:100070000000000001020408102040800102040872
:100080001020408001020408102040808040201091
:100090000804020102020202020202020404040431
:1000A0000404040403030303030303030101010124
:1000B000010101010000390036003300300000006A
:1000C0003B0038003500320000003A0037003400B1
:1000D0003100CC015A0A11241FBECFE5D8E0DEBFA3
:1000E000CDBF10E0A0E6B0E0EEE2F7E102C005907F
:1000F0000D92AE3CB107D9F721E0AEECB0E001C003
:100100001D92AA38B207E1F710E0C6EDD0E004C0B6
:100110002297FE010E94910BC23DD107C9F70E94B0
:100120005D0B0C94950B0C94000061E08AE00E943A
:100130001B0861E08BE00E941B0861E08CE00E94DC
:100140001B0826E040E855E260E070E08DEE90E0AC
:100150000E9496090E94D2018EEC90E00E949A03C0
:1001600060E78EEC90E00C94E7030F931F93CF931E
:10017000DF938EEC90E00E942B07811103C080E09A
:1001800090E02AC08EEC90E00E944A078823B9F3E1
:1001900068E670E08DEE90E00E94DD0ACFECD0E0E2
:1001A0000CED10E06991F80161938F0140E150E09E
:1001B0008DEE90E00E94550BF0E0C33DDF0791F714
:1001C0006FEB70E08DEE90E00E94DD0A8EEC90E027
:1001D0000E94E80681E090E0DF91CF911F910F919E
:1001E00008950F931F93CF93DF938B01EA01892B1F
:1001F00011F060E001C061E08CE00E945408012B26
:1002000011F060E001C061E08AE00E945408CD2B4B
:1002100011F060E001C061E08BE0DF91CF911F91B0
:100220000F910C94540840E050E061E070E080E0F1
:1002300090E00E94F10068EE73E080E090E00E94A0
:10024000C20740E050E060E070E080E090E00E9493
:10025000F10068EE73E080E090E00C94C207CF9369
:10026000DF9365E770E08DEE90E00E94DD0ACAE062
:10027000D0E040E050E060E070E081E090E00E947B
:10028000F10064E670E080E090E00E94C20740E088
:1002900050E060E070E080E090E00E94F10064E6F1
:1002A00070E080E090E00E94C207219711F7DF9193
:1002B000CF91089541E050E060E070E080E090E090
:1002C0000E94F10068EC70E080E090E00E94C207BC
:1002D00040E050E060E070E080E090E00E94F100DB
:1002E00068EC70E080E090E00E94C2070E94B500D8
:1002F0009093E2008093E100892BE1F28091DC0091
:1003000090916400891323C02091DD0090916500D5
:1003100029131DC02091DE0090916600291317C09B
:100320002091DF0090916700291311C060E870E010
:100330008DEE90E00E94DD0A0E9413018091DF00A3
:100340008093E0001092E2001092E10008959091F5
:10035000600089131FC09091DD00809161009813A7
:1003600019C09091DE0080916200981313C09091A3
:10037000DF008091630098130DC066E970E08DEE98
:1003800090E00E94DD0A0E9413018091DF008093BB
:10039000E00008950C942F0143E064E08EEC90E0BF
:1003A0000C946D02CF93CFB7F8948091E300811144
:1003B00023C0E8E9F0E08491E8E7F0E09491E82FC9
:1003C000F0E0EE0FFF1FE853FF4FA591B4918C9121
:1003D000892321F461E084E00E94540861E084E014
:1003E0000E941B086C9A6E9A61E087E00E941B08CD
:1003F00061E085E00E941B088091E3008F5F80939D
:10040000E300CFBFCF9108958FB90000779BFECF57
:100410008FB108957F928F929F92AF92BF92CF92A9
:10042000DF92EF92FF920F931F93CF93DF936C01B4
:10043000162F942EE9011E77106860E0FC01848578
:100440000E9454089A94812F0E9404027C2EEC2E64
:10045000FD2EAA24A394B12C8E2D8719891528F579
:1004600081111AC00023C1F0802F812C883048F4FC
:100470009501082E01C0220F0A94EAF7822A8F5FA5
:10048000F5CF812F0E940402982D90952881922308
:100490008821982B988305C0812F0E940402F701C0
:1004A0008083FFEFEF1AFF0AD7CFC90DD11D80E07F
:1004B0000E940402888361E0F6018485DF91CF9178
:1004C0001F910F91FF90EF90DF90CF90BF90AF9072
:1004D0009F908F907F900C945408FC01648745870F
:1004E00008956D988DB1837F8DB90895EF92FF9235
:1004F0001F93CF93DF931F92CDB7DEB77C01162FEA
:1005000060E0FC01848549830E945408812F8E7726
:100510000E9404024981842F0E94040261E0F701D5
:1005200084850F90DF91CF911F91FF90EF900C94F5
:100530005408CF92DF92EF92FF920F931F93CF93C5
:10054000DF9300D0CDB7DEB78C01E62EF42E60E04D
:10055000FC01848529833A830E9454088E2D8E776E
:100560000E9404022981E22EC22E3A81D32E8C2DC4
:100570008E198F1530F4F60181916F010E940402EB
:10058000F6CF61E0F80184850F900F90DF91CF9155
:100590001F910F91FF90EF90DF90CF900C94540833
:1005A0001F93CF93DF93EC01162F60E08C850E94A0
:1005B0005408812F8E7780680E94040280E00E9498
:1005C0000402182F61E08C850E945408812FDF916E
:1005D000CF911F9108950F9341110E940A020F912C
:1005E0000895EF92FF921F93CF93DF931F92CDB7A1
:1005F000DEB77C01162F49830E94D0024981482B27
:10060000612FC7010F90DF91CF911F91FF90EF9065
:100610000C947602EF92FF921F93CF93DF931F9279
:10062000CDB7DEB77C01162F49830E94D0024981E5
:1006300040954823612FC7010F90DF91CF911F9103
:10064000FF90EF900C947602DF92EF92FF920F935F
:100650001F93CF93DF93EC018B01D42E790140E0FF
:1006600062E00E94760244E06AE0CE010E947602D7
:1006700040E864E1CE010E94F10298014D2D62E153
:10068000CE010E94990243E062E0CE010E94760210
:1006900008E813E16AE0CE010E94D00282FD05C0A5
:1006A00001501109B9F784E012C040E062E0CE01C8
:1006B0000E94760264E4CE010E94D002F70180839A
:1006C00062E4CE010E94D002F701818381E0DF91D4
:1006D000CF911F910F91FF90EF90DF900895CF93EE
:1006E000DF93EC014FE062E00E94760262E370E08B
:1006F00080E090E00E94C20762E0CE010E94D0023A
:1007000084FDFACFDF91CF910895CF93DF93EC0171
:1007100068E20E94D002982F9370933041F0482FE6
:10072000436068E2CE01DF91CF910C947602DF91B5
:10073000CF910895CF93DF93EC0161E08C850E9407
:100740001B0861E08C850E94540861E08D850E9441
:100750001B08CE010E9471028D850E948A08892B98
:1007600059F461E08D850E94540862E370E080E0F6
:1007700090E00E94C20703C0CE010E946F0340E8D0
:1007800064E5CE010E94760249EA66E5CE010E9448
:10079000760243E068E5CE010E94760248EE6AE503
:1007A000CE010E94760240E46AE2CE010E94760207
:1007B0004DE362E2CE010E947602CE01DF91CF913D
:1007C0000C9485036CE40E94D002807708951F93F7
:1007D000CF93DF93EC01162F0E94E203811771F093
:1007E00040E76CE4CE010E940A03412F40776CE49D
:1007F000CE01DF91CF911F910C94F102DF91CF9147
:100800001F9108952F923F925F926F927F928F92E5
:100810009F92AF92BF92CF92DF92EF92FF920F938F
:100820001F93CF93DF9300D000D0CDB7DEB73C014C
:10083000962E542E302E082DA114B10419F0F50176
:10084000408101C040E0242EF0E10F9F200C1124D4
:1008500040E062E0C3012B833C830E9476024FE7B5
:1008600068E0C3010E94760240E864E1C3010E948F
:10087000F1022B813C81432D62E1C3010E94990268
:10088000422D6AE1C3010E947602492D62E0C30154
:100890000E9476028CE0981205C040E86AE1C3012C
:1008A0000E94F10290ED292E97E0392E68E0C301F5
:1008B0000E94D002982F952139F480FD62C0E1E0BA
:1008C0002E1A310899F75DC06CE0C3010E94D00276
:1008D000982E837109F057C0E114F104F1F0C114AE
:1008E000D104D9F064E1C3010E94D002482FF6017F
:1008F0008081841708F449C04083970162E1C301F5
:100900000E94EB0268E1C3010E94D002182F177009
:10091000A114B10411F0F501108393FC38C0E11467
:10092000F104B9F1C114D104A1F1888D882389F1B2
:10093000F6014081413019F4143019F420C04230DE
:1009400010F488E027C01111FCCF42509E012F5FA8
:100950003F4FB701C3010E9424038130D9F4F6014F
:100960008081E80EF11CF7013297908189819813FC
:10097000E8CF319690818A819813E3CF0AC089E04D
:1009800009C084E007C082E005C085E003C083E0C1
:1009900001C081E00F900F900F900F90DF91CF91E9
:1009A0001F910F91FF90EF90DF90CF90BF90AF908D
:1009B0009F908F907F906F905F903F902F900895C1
:1009C0008F92AF92BF92CF92DF92EF92FF920F93EE
:1009D0001F93AF928C2C570168017901042F9B0162
:1009E00040E36CE00E9402040F901F910F91FF9072
:1009F000EF90DF90CF90BF90AF908F9008954F927F
:100A00005F926F927F928F929F92AF92CF92EF926E
:100A1000FF920F931F93CF93DF9300D0CDB7DEB734
:100A20003C016A832A0149014115510531F1F9015F
:100A30008081823010F140E86CE1C3010E940A031A
:100A400087E08983A12CC12CCE0101967C01840111
:100A5000920141E0BE016E5F7F4FC3010E94E0043E
:100A6000813061F4F4018081823011F082E006C0AF
:100A700089818111FBCF81E001C085E00F900F904B
:100A8000DF91CF911F910F91FF90EF90CF90AF909A
:100A90009F908F907F906F905F904F9008959A01F4
:100AA000AB0166E20C94FF042F923F924F925F924B
:100AB0006F927F928F929F92AF92BF92CF92DF926E
:100AC000EF92FF920F931F93CF93DF93CDB7DEB7D3
:100AD0002D970FB6F894DEBF0FBECDBF3C012B01A2
:100AE000342E20E5241708F40BC140E86CE10E9485
:100AF0000A03BB24B39432E0B31691F043E0B4167A
:100B0000E1F081E0B81200C183E989833320D1F09C
:100B100041E0D2018C91853008F440E0D12C17C01F
:100B200085E98983332081F041E0F20180818830BA
:100B300008F440E073E0D72E0AC087E9898366E0B5
:100B4000D62E04C0D12C02C053E0D52E40E0532D48
:100B5000F8EFDF9E500D112457FD50E0442321F0A3
:100B600088E88B8373E001C072E091E0852F877085
:100B700009F490E0852F859585958595890F21F459
:100B8000442311F1585F20C0442311F063E001C0F9
:100B900064E0861708F4682F80E090E092012D0D44
:100BA000311DE72FE80FA1E0B0E0AC0FBD1FAE0F85
:100BB000B11DFD01D901A80FB91F1196AC91A083F9
:100BC0000196861770F3DCCF43E0242E503204F1F7
:100BD000B0E7BA838C819B8189279D8189279E817B
:100BE00089278F839E01285F3F4F47E0BE016F5FDB
:100BF0007F4FC3015D870E9424035D85813009F02A
:100C0000CEC01B862A86FE0137964F0179E01EC0B2
:100C1000952F97709B87252F25952595259582E003
:100C2000820F392FF0E18F9F300D11243A8371E04C
:100C3000911101C070E0780F88248394912C8C0E60
:100C40009D1E880E911C87E0821B8A87CB844C2DC9
:100C50004295407F4C0D6AE1C3015D877C870E940D
:100C60007602A12C9E01255F3F4F79018E01065F20
:100C70001F4F94017C85472FBE016F5F7F4FC301DB
:100C80000E94E0045D858330A1F56CE1C3010E9400
:100C9000D0025D8585FD36C0482F4F7109F440E2D2
:100CA000842F90E0252F332727FD3095281739070B
:100CB0005CF5542F019787709927242F259525954A
:100CC00025952F5F31E0811101C030E0230FE1E075
:100CD000F0E0EC0FFD1FE20FF11DA1E0B0E002C05B
:100CE000AA0FBB1F8A95E2F7CD019081982B9083C4
:100CF0006DCF813009F053C0503244F450E268CFD8
:100D000087E04DC083E04BC086E049C08B818838C6
:100D100019F052E044E002C053E043E080E090E08C
:100D200092012D0D311DF901E80FF91F652F680F94
:100D3000A1E0B0E0AC0FBD1FA60FB11D6C916183A7
:100D40000196841780F38A85833031F58B85811174
:100D500023C09E012D5F3F4F41E0B401C3010E94BB
:100D600024038130E1F49B81F4018181981316C042
:100D70009C818281981312C0808182FF02C0B3944B
:100D8000BACED2011B968C931B978B2D880F8B0D9F
:100D90008F5F8C9381E003C082E001C088E02D96D4
:100DA0000FB6F894DEBF0FBECDBFDF91CF911F917C
:100DB0000F91FF90EF90DF90CF90BF90AF909F90FA
:100DC0008F907F906F905F904F903F902F900895FD
:100DD0008F929F92AF92CF92EF92FF920F931F93B9
:100DE000CF93DF9300D000D0CDB7DEB74C0180E5C4
:100DF00089831A829E012D5F3F4F42E0BE016F5FE3
:100E00007F4FC4010E9424038130B1F4A12CC12C76
:100E1000E12CF12C00E010E020E030E044E0BE01E5
:100E20006F5F7F4FC4010E94E004843021F0813065
:100E300019F482E001C081E00F900F900F900F90A5
:100E4000DF91CF911F910F91FF90EF90CF90AF90D6
:100E50009F908F900895CF93DF9300D01F92CDB7CE
:100E6000DEB722E02B83AE014D5F5F4FBE016F5FA7
:100E70007F4F0E944F05813031F091E0833009F0BF
:100E800090E0892F01C081E00F900F900F90DF91CB
:100E9000CF91089540E0BC010E94540591E081305B
:100EA00009F090E0892F08951F920F920FB60F92CC
:100EB00011242F933F938F939F93AF93BF93809170
:100EC000E5009091E600A091E700B091E800309134
:100ED000E40023E0230F2D3720F40196A11DB11D5E
:100EE00005C026E8230F0296A11DB11D2093E40042
:100EF0008093E5009093E600A093E700B093E800AC
:100F00008091E9009091EA00A091EB00B091EC0093
:100F10000196A11DB11D8093E9009093EA00A09372
:100F2000EB00B093EC00BF91AF919F918F913F91F7
:100F30002F910F900FBE0F901F9018953FB7F89408
:100F40008091E9009091EA00A091EB00B091EC0053
:100F500022B708B600FE05C02F3F19F00196A11D6B
:100F6000B11D3FBF6627782F892F9A2F620F711D01
:100F7000811D911D42E0660F771F881F991F4A95BA
:100F8000D1F70895CF92DF92EF92FF92CF93DF9344
:100F90006B017C010E949E07EB01C114D104E104A6
:100FA000F10489F00E946C0B0E949E076C1B7D0B64
:100FB000683E734090F381E0C81AD108E108F10857
:100FC000C851DC4FEACFDF91CF91FF90EF90DF90D7
:100FD000CF900895789483B7826083BF83B7816090
:100FE00083BF89B7816089BF1EBC8EB582608EBD0C
:100FF0008EB581608EBD8FB581608FBD85B58460F3
:1010000085BD85B5806485BD329A319A309A379A0C
:101010001AB80895843039F0863049F0833051F49D
:101020008FB58F7702C08FB58F7D8FBD089585B541
:101030008F7D85BD0895CF93DF9390E0FC01EC5840
:10104000FF4F2491FC01EC56FF4F8491882349F116
:1010500090E0880F991FFC01E853FF4FA591B491D0
:1010600082549F4FFC01C591D4919FB7611108C074
:10107000F8948C91209582238C93888182230AC0D6
:10108000623051F4F8948C91322F309583238C93F5
:101090008881822B888304C0F8948C91822B8C9356
:1010A0009FBFDF91CF9108950F931F93CF93DF934D
:1010B0001F92CDB7DEB7282F30E0F901EC5AFF4F71
:1010C0008491F901EC58FF4F1491F901EC56FF4F50
:1010D00004910023C9F0882321F069830E940A0843
:1010E0006981E02FF0E0EE0FFF1FE254FF4FA59162
:1010F000B4919FB7F8948C91611103C0109581232E
:1011000001C0812B8C939FBF0F90DF91CF911F91D6
:101110000F910895CF93DF93282F30E0F901EC5A17
:10112000FF4F8491F901EC58FF4FD491F901EC562F
:10113000FF4FC491CC2391F081110E940A08EC2F3B
:10114000F0E0EE0FFF1FEC54FF4FA591B4912C91EE
:101150002D2381E090E021F480E002C080E090E067
:10116000DF91CF910895FC01818D228D90E0805C0C
:101170009F4F821B91098F7399270895FC01918DD0
:10118000828D981731F0828DE80FF11D858D90E0EA
:1011900008958FEF9FEF0895FC01918D828D981730
:1011A00061F0828DDF01A80FB11D5D968C91928D4B
:1011B0009F5F9F73928F90E008958FEF9FEF089548
:1011C00080E59AE0892B49F080E090E0892B29F0B6
:1011D0000E94500A81110C9400000895FC01848D36
:1011E000DF01A80FB11DA35ABF4F2C91848D90E051
:1011F00001968F739927848FA689B7892C93A0892C
:10120000B1898C9180648C93938D848D981306C0E2
:101210000288F389E02D80818F7D80830895CF93AC
:10122000DF93EC01888D8823C9F0EA89FB898081EE
:1012300085FD05C0A889B9898C9186FD0FC00FB6C0
:1012400007FCF5CF808185FFF2CFA889B9898C9101
:1012500085FFEDCFCE010E94EE08E7CFDF91CF9161
:101260000895CF92DF92FF920F931F93CF93DF9356
:101270001F92CDB7DEB76C0181E0D60158968C93F2
:1012800058975B969C915B975C968C915C979813B2
:1012900007C05096ED91FC915197808185FD2EC03D
:1012A000F601038D10E00F5F1F4F0F731127F02E13
:1012B000F601848DF81211C00FB607FCF9CFD601E4
:1012C0005096ED91FC915197808185FFF1CFC60139
:1012D00069830E94EE086981EBCF838DE80FF11DD1
:1012E000E35AFF4F6083D6015B960C935B9752964F
:1012F000ED91FC915397808180620CC0D601569687
:10130000ED91FC91579760835096ED91FC91519728
:1013100080818064808381E090E00F90DF91CF91A5
:101320001F910F91FF90DF90CF900895BF92CF92C1
:10133000DF92EF92FF92CF93DF93EC016A017B0182
:10134000B22EE889F98982E08083411581EE580741
:1013500061057105A1F060E079E08DE390E0A701FF
:1013600096010E946D0B2150310941095109569592
:10137000479537952795211580E1380798F0E8893A
:10138000F989108260E874E88EE190E0A701960187
:101390000E946D0B2150310941095109569547951D
:1013A00037952795EC85FD853083EE85FF85208375
:1013B000188EEC89FD89B082EA89FB898081806181
:1013C0008083EA89FB89808188608083EA89FB8940
:1013D000808180688083EA89FB8980818F7D80831A
:1013E000DF91CF91FF90EF90DF90CF90BF90089565
:1013F0001F920F920FB60F9211242F938F939F93EA
:10140000EF93FF93E091FD00F091FE008081E09169
:101410000301F091040182FD12C0908180910601C8
:101420008F5F8F7320910701821751F0E0910601C1
:10143000F0E0E351FF4F958F8093060101C080815A
:10144000FF91EF919F918F912F910F900FBE0F9071
:101450001F9018951F920F920FB60F9211242F9381
:101460003F934F935F936F937F938F939F93AF932C
:10147000BF93EF93FF938DEE90E00E94EE08FF91F3
:10148000EF91BF91AF919F918F917F916F915F91FC
:101490004F913F912F910F900FBE0F901F90189575
:1014A0008DEE90E00E94B30821E0892B09F420E042
:1014B000822F08951092F0001092EF0088EE93E0D2
:1014C000A0E0B0E08093F1009093F200A093F300CD
:1014D000B093F40081EB90E09093EE008093ED00E8
:1014E00080E490E09093FA008093F90029E230E0E4
:1014F0003093FC002093FB002BE230E03093FE00A1
:101500002093FD002AE230E0309300012093FF0099
:1015100090930201809301018CE290E0909304018A
:1015200080930301109206011092070110920801A6
:10153000109209010895CF92DF92EF92FF920F93DC
:101540001F93CF93DF937C016A01EB0100E010E071
:101550000C151D0571F06991D701ED91FC91019079
:10156000F081E02DC7010995892B19F00F5F1F4FFE
:10157000EFCFC801DF91CF911F910F91FF90EF90B6
:10158000DF90CF9008956115710581F0DB010D901A
:101590000020E9F7AD0141505109461B570BDC0112
:1015A000ED91FC910280F381E02D099480E090E0C0
:1015B00008956DEB70E00C94C30A0F931F93CF93C3
:1015C000DF93EC010E94C30A8C01CE010E94D90A6C
:1015D000800F911FDF91CF911F910F9108958F92EE
:1015E0009F92AF92BF92CF92DF92EF92FF920F93B2
:1015F0001F93CF93DF93CDB7DEB7A1970FB6F894C3
:10160000DEBF0FBECDBF7C01C42EE52FCB01D22E95
:1016100019A221E02D1510F02AE0D22E8E010F5DC7
:101620001F4F8D2C912CA12CB12C6C2D7E2FA50140
:1016300094010E946D0B8C2DD29E801911240150B3
:1016400011098A3014F4805D01C0895CF80180833F
:10165000211531054105510521F0C22EE32FCA01A4
:10166000E4CFB801C7010E94C30AA1960FB6F8944F
:10167000DEBF0FBECDBFDF91CF911F910F91FF90C5
:10168000EF90DF90CF90BF90AF909F908F90089594
:101690002115310541F4DC01ED91FC910190F081BF
:1016A000E02D642F09940C94EF0A9A01462F50E024
:1016B00060E070E00C94480B08950E94EA070E94D5
:1016C0005C0B0E949500C0EED8E00E945A01209762
:1016D000E1F30E94E008F9CF0895A1E21A2EAA1BB7
:1016E000BB1BFD010DC0AA1FBB1FEE1FFF1FA217D2
:1016F000B307E407F50720F0A21BB30BE40BF50BCF
:10170000661F771F881F991F1A9469F76095709557
:10171000809590959B01AC01BD01CF010895EE0F1E
:0E172000FF1F0590F491E02D0994F894FFCF7F
:10172E00A31B630202631BA35363616E6E65642089
:10173E005549443A00476F20546F2048656C6C0041
:10174E00596F752063616E20656E746572204D72DF
:10175E0020426C756500596F752063616E20656E51
:10176E00746572204D722057686974650000000020
:10177E000031099B0AB308CC08BE080F090D0A00F8
:0E178E006E616E00696E66006F7666002E005A
:00000001FF
